:100000000C94E5000C9404010C9404010C9404017C
:100010000C9404010C9404010C9404010C9404014C
:100020000C9404010C9404010C9404010C9404013C
:100030000C9404010C9404010C9404010C9404012C
:100040000C943D020C9404010C943B010C940401AB
:100050000C9404010C9404010C9404010C9404010C
:100060000C9404010C9404010C9404010C940401FC
:100070000C9404010C9404010C9479020C94040176
:100080000C9404010C9404010C9404016E616E0044
:10009000696E660000407A10F35A00A0724E18098B
:1000A0000010A5D4E80000E87648170000E40B54DF
:1000B000020000CA9A3B000000E1F50500008096AE
:1000C0009800000040420F000000A08601000000E0
:1000D000102700000000E80300000000640000009A
:1000E00000000A00000000000100000000002C7663
:1000F000D888DC674F0823DFC1DFAE59E1B1B7967E
:10010000E5E3E453C63AE651997696E8E6C28426DA
:10011000EB898C9B62ED407C6FFCEFBC9C9F40F2B6
:10012000BAA56FA5F490055A2AF75C936B6CF96732
:100130006DC11BFCE0E40D47FEF520E6B500D0EDF7
:10014000902E0300943577050080841E080000205F
:100150004E0A000000C80C333333330F986E1283FD
:100160001141EF8D2114893BE65516CFFEE6DB18D1
:10017000D1844B381BF77C1D901DA4BBE424203296
:1001800084725E228100C9F124ECA1E53D27494E2D
:1001900046494E4954594E414ECDCCCC3D0AD72309
:1001A0003C17B7D13877CC2B329595E6241FB14F49
:1001B0000A000020410000C84200401C4620BCBE8E
:1001C0004CCA1B0E5AAEC59D740011241FBECFEF42
:1001D000D0E1DEBFCDBF12E0A0E0B1E0E0E2F8E99F
:1001E00000E00BBF02C007900D92AC36B107D9F703
:1001F00013E0ACE6B2E001C01D92A83AB107E1F706
:100200000E940D030C940E4C0C9400008FEF8ABBDF
:1002100017BA18BA14BA98EF91BB82B9109261005C
:100220008FE18093640008951092900087E689B969
:100230008AB188698AB9E5E9F0E0808186608083C7
:1002400008955D9BFECF8CB908955D9BFECF8CB960
:10025000089580E090E005C0019627E0813D920777
:1002600011F05F9BF9CF5F9BFECF8CB108955F9B30
:10027000FECF8CB108951F920F920FB60F920BB65E
:100280000F9211242F933F934F935F936F937F931C
:100290008F939F93AF93BF93CF93DF93EF93FF938E
:1002A0008AB188718AB98CB18093630380916303AA
:1002B000843271F4C0E0D0E00E942901FE01E953CC
:1002C000FD4F80832196C132D105B1F710926303AF
:1002D0008AB188698AB9FF91EF91DF91CF91BF917F
:1002E000AF919F918F917F916F915F914F913F91CE
:1002F0002F910F900BBE0F900FBE0F901F9018956F
:100300001092980087E680939900EAE9F0E08081F6
:1003100088698083EDE9F0E08081866080830895BC
:10032000982F80919B0085FFFCCF90939C000895AF
:10033000982F80919B0085FFFCCF90939C0008959F
:1003400080919B0087FFFCCF80919C00089587B12E
:1003500087B9379A089597B1907F982B97B986B14E
:10036000826C86B93699FECF94B185B1382F20E0E2
:10037000290F311DC9010895AF92BF92CF92DF922C
:10038000EF92FF920F931F93CF93DF936C015B016A
:100390000E94AB01C0E0D0E0EE24FF2487010CC036
:1003A000C6010E94AB01AA2797FDA095BA2FE80EBF
:1003B000F91E0A1F1B1F2196CA15DB058CF3950138
:1003C000442737FD4095542FC801B7010E9471485A
:1003D000CA01B9010E94A8432CE53FE84AE950E46C
:1003E0000E943A4420E030E040E85AE30E943A4458
:1003F000DF91CF911F910F91FF90EF90DF90CF9001
:10040000BF90AF90089583B783BF83B7876083BFE2
:1004100012BE87B7816087BF08951FBC85E08EBD7F
:100420008FEF8DBD80EF8CBD87B7846087BF089547
:1004300085B585BD85B5856085BD14BC87B78064ED
:1004400087BF089510928B0085E080938A008FEF1C
:100450008093890010928800EDE7F0E0808184604D
:1004600080830895E4E7F0E0108282E180937000D9
:100470001092710084E4808308951F920F920FB64A
:100480000F9211248F939F938091C1029091C20289
:1004900001969093C2028093C10280917C02909158
:1004A0007D0282BF9F918F910F900FBE0F901F9082
:1004B0001895AC01DC010D900020E9F71197A81BFD
:1004C000B90B20E030E060EA7FE00FC0FA01E20FF4
:1004D000F31FE08180919B0085FFFCCFE0939C009F
:1004E000FB013197F1F72F5F3F4F2A173B0774F35A
:1004F00008951F920F920FB60F920BB60F92112410
:100500002F933F934F935F936F937F938F939F931B
:10051000AF93BF93EF93FF9380919C008093A403CC
:100520008091A4038B3421F088EA92E00E94590262
:1005300010929C00FF91EF91BF91AF919F918F918D
:100540007F916F915F914F913F912F910F900BBED3
:100550000F900FBE0F901F901895AC01DC010D900D
:100560000020E9F71197A81BB90B20E030E060EB01
:1005700074E00FC0FA01E20FF31FE08180919B004D
:1005800085FFFCCFE0939C00FB013197F1F72F5FD3
:100590003F4F2A173B0774F30895DC010D900020AC
:1005A000E9F71197A81BB90B20E030E040E757E1CD
:1005B0000CC0FC01E20FF31FE0815D9BFECFECB9A4
:1005C000FA013197F1F72F5F3F4F2A173B078CF362
:1005D0005D9BFECF80E28CB90895DC010D90002078
:1005E000E9F71197A81BB90B20E030E040E757E18D
:1005F0000CC0FC01E20FF31FE0815D9BFECFECB964
:10060000FA013197F1F72F5F3F4F2A173B078CF321
:100610005D9BFECF80E28CB908950E94060178941C
:100620000E9414010E94800181E30E9421010E9426
:10063000A7018CE00E94670480E80E943D4260E0D0
:1006400070E080E89FE30E94924280E80E942B4283
:1006500080EF90E090937D0280937C0214BA8FE04B
:1006600085BB80E090E00E94494A60939B027093B2
:100670009C0280939D0290939E028FE992E00E94DB
:10068000494A60938F0270939002809391029093F5
:10069000920286E493E00E94494A6093B902709303
:1006A000BA028093BB029093BC028AE892E00E9457
:1006B000494A6093AD027093AE028093AF0290936B
:1006C000B0028DEB92E00E94494A6093EA02709377
:1006D000EB028093EC029093ED0283E593E00E949D
:1006E000494A60937E0270937F02809380029093C8
:1006F00081020E9403021092C2021092C1020E9463
:100700002E0780E29EE420E931E0F9013197F1F70C
:100710000197D9F70E9425040E942D3E809168031D
:100720009091690380359105B9F70E94A1049093D7
:100730006903809368030E94743BEECF662311F037
:100740001A9A01C01A981B988C9A8D9A8E9A8F9A31
:10075000979896989598949887FD979A86FD969A7B
:1007600085FD959A84FD949A1C9A00C01C989798D0
:1007700096989598949883FD979A82FD969A81FD14
:10078000959A80FD949A1C9A00C01C98949A959A08
:10079000969A979A0895882311F01A9A01C01A9888
:1007A0001B9A8C988D988E988F981C9A00C0849B69
:1007B00002C080E101C080E08599806286998064F2
:1007C000879980681C9800C01C9A00C08499816039
:1007D0008599826086998460879988601C980895BD
:1007E00080E00E94CB0387FDFBCF82E090E0019781
:1007F000F1F780E00E94CB0308951F93182F0E9409
:10080000F003812F60E00E949E031F9108951F93C3
:10081000182F0E94F003812F61E00E949E031F9118
:100820000895662311F4805809C0613011F4805492
:1008300005C0623011F48C5601C08C520E94FD0339
:1008400008950E94F00390E0089581E00E94FD0366
:10085000089582E00E94FD0308951F93182F0E94BF
:10086000F003982F1A3099F4843110F480E40BC00F
:100870008054843110F484E106C094519C3210F00D
:1008800080E001C084E580580E94FD0304C0812FF0
:1008900061E00E949E031F910895CF93DF93EC01C6
:1008A00002C00E942D0489918823D9F7DF91CF914E
:1008B0000895CF93DF93EC0102C00E942D04FE0146
:1008C000219684918823C9F7DF91CF9108951F93D2
:1008D000182F129A139A149A8C9A8D9A8E9A8F9A2C
:1008E00080E89EE30197F1F7959A949A1C9A00C0CC
:1008F0001C9880E893E10197F1F71C9A00C01C98BE
:1009000080E490E0FC013197F1F71C9A00C01C983C
:10091000FC013197F1F794981C9A00C01C9801973C
:10092000F1F788E20E94FD0388E00E94FD030E9427
:10093000250486E00E94FD03812F0E94FD031F9184
:1009400008951092520380E884BB88EC90E00197F0
:10095000F1F783B390E024E0880F991F2A95E1F71F
:10096000803B910509F4D2C0813B91052CF480377E
:10097000910509F0D9C0D1C0803D910509F4BFC0EF
:10098000803E910509F0D0C0A8C0F4BBC901019711
:10099000F1F783B390E0B4E0880F991FBA95E1F7BF
:1009A000803B910559F0803D910521F080379105FC
:1009B00069F408C083B38F30E9F722C283B38F3064
:1009C000E9F721C283B38F30E9F720C2CA0101974A
:1009D000F1F7E4BBC9010197F1F783B390E0A4E01C
:1009E000880F991FAA95E1F7803B9105A9F0813BFB
:1009F000910524F480379105B9F412C0803D91052A
:100A000039F0803E910581F483B38F30E9F701C25C
:100A100083B38F30E9F700C283B38F30E9F7FFC1AA
:100A200083B38F30E9F7FEC1CA010197F1F774BBB8
:100A3000C9010197F1F783B390E0B4E0880F991FE3
:100A4000BA95E1F7803B9105A9F0813B910524F42B
:100A500080379105B9F412C0803D910539F0803E90
:100A6000910581F483B38F30E9F7DFC183B38F3011
:100A7000E9F7DEC183B38F30E9F7DDC183B38F308F
:100A8000E9F7DCC164BBC9010197F1F783B390E0DA
:100A9000A4E0880F991FAA95E1F7803B9105A9F082
:100AA000813B910524F480379105F9F412C0803D13
:100AB000910539F0803E9105C1F483B38F30E9F799
:100AC000C0C183B38F30E9F7BFC183B38F30E9F77B
:100AD000BEC183B38F30E9F7BDC1F0E828EC30E048
:100AE00040EA5FE0E0E470E260E183B38F3009F058
:100AF0004CCF81E08093520321E430E0ADC183B359
:100B00008F30E9F781E0809352037AC183B38F304D
:100B1000E9F781E08093520376C183B38F30E9F720
:100B200081E08093520372C180EA9FE00197F1F760
:100B300080E484BB88EC90E00197F1F783B390E008
:100B400024E0880F991F2A95E1F7803B910509F46D
:100B5000D2C0813B91052CF48037910509F0D9C0B2
:100B6000D1C0803D910509F4BFC0803E910509F0D8
:100B7000D0C0A8C0F4BBC9010197F1F783B390E0DE
:100B8000B4E0880F991FBA95E1F7803B9105A9F071
:100B9000813B910524F480379105B9F412C0803D62
:100BA000910539F0803E910581F483B38F30E9F7E8
:100BB00030C183B38F30E9F723C183B38F30E9F7B6
:100BC00022C183B38F30E9F721C1CA010197F1F740
:100BD000E4BBC9010197F1F783B390E0A4E0880F6B
:100BE000991FAA95E1F7803B910559F0803D910549
:100BF00021F08037910569F408C083B38F30E9F79D
:100C00000BC183B38F30E9F70AC183B38F30E9F7A3
:100C100009C1CA010197F1F774BBC9010197F1F746
:100C200083B390E0B4E0880F991FBA95E1F7803B59
:100C30009105A9F0813B910524F480379105B9F421
:100C400012C0803D910539F0803E910581F483B357
:100C50008F30E9F7EAC083B38F30E9F7E9C083B397
:100C60008F30E9F7E8C083B38F30E9F7E7C064BBA2
:100C7000C9010197F1F783B390E0A4E0880F991FB1
:100C8000AA95E1F7803B9105A9F0813B910524F4F9
:100C900080379105F9F412C0803D910539F0803E0E
:100CA0009105C1F483B38F30E9F7CBC083B38F30A4
:100CB000E9F7CAC083B38F30E9F7C9C083B38F3077
:100CC000E9F7C8C0F0E828EC30E040EA5FE0E0E493
:100CD00070E260E183B38F3009F04CCF81E0809304
:100CE000520322E430E0B8C083B38F30E9F781E0EB
:100CF0008093520391C083B38F30E9F781E08093F2
:100D000052038DC083B38F30E9F781E080935203A3
:100D100089C080EA9FE00197F1F780E284BB88EC0C
:100D200090E00197F1F783B390E034E0880F991FCA
:100D30003A95E1F7803B9105D9F0813B910524F488
:100D40008037910519F51BC0803D910551F0803E1B
:100D50009105E1F483B38F30E9F781E0809352038A
:100D600064C083B38F30E9F781E08093520360C0A1
:100D700083B38F30E9F781E0809352035CC083B383
:100D80008F30E9F781E08093520358C080E184BB43
:100D900088EC90E00197F1F783B390E024E0880FAE
:100DA000991F2A95E1F7803B9105D9F0813B910588
:100DB00024F48037910519F51BC0803D910551F051
:100DC000803E9105E1F483B38F30E9F781E08093B1
:100DD000520337C083B38F30E9F781E08093520329
:100DE00033C083B38F30E9F781E0809352032FC083
:100DF00083B38F30E9F781E0809352032BC00895CD
:100E000023E330E029C022E330E026C021E330E0D4
:100E100023C020E530E020C026E330E01DC025E3FC
:100E200030E01AC024E330E017C023E430E014C0FF
:100E300029E330E011C028E330E00EC027E330E0C2
:100E40000BC024E430E008C023E230E005C020E31A
:100E500030E002C02AE230E0C901089580E49CE954
:100E60000197F1F70E94250480E060E00E941104E0
:100E700080E091E00E944D0480E061E00E94110456
:100E800085E191E00E944D0480E062E00E9411043F
:100E900088E291E00E944D0480E063E00E9411042A
:100EA0008CE391E00E944D0408952F923F924F925F
:100EB0005F926F927F928F929F92AF92BF92CF92EA
:100EC000DF92EF92FF920F931F93DF93CF93CDB7F3
:100ED000DEB7C354D0400FB6F894DEBF0FBECDBF0F
:100EE00080E090E00E94494A60939B0270939C02CC
:100EF00080939D0290939E028FE992E00E94494A5E
:100F000060938F027093900280939102909392026B
:100F100086E493E00E94494A6093B9027093BA0252
:100F20008093BB029093BC028AE892E00E94494AF7
:100F30006093AD027093AE028093AF029093B002C3
:100F40008DEB92E00E94494A6093EA027093EB02B3
:100F50008093EC029093ED0283E593E00E94494A6E
:100F600060937E0270937F0280938002909381024F
:100F70000E94250480E060E00E9411048FE491E06B
:100F80000E944D0480E061E00E94110480E691E03F
:100F90000E944D0480E062E00E94110487E691E027
:100FA0000E944D0480E063E00E9411048EE691E00F
:100FB0000E944D0488E061E00E94110440919B0270
:100FC00050919C0260919D0270919E022DB73EB798
:100FD000285030400FB6F8943EBF0FBE2DBFEDB77E
:100FE000FEB731965E010894A11CB11CADB7BEB727
:100FF0001296BC92AE921197B5E7EB2EB1E0FB2EA4
:10100000F382E28244835583668377830E94BA49E0
:101010002DB73EB7285F3F4F0FB6F8943EBF0FBEC7
:101020002DBFC5010E944D048FE00E94FD0388E0A2
:1010300062E00E94110440918F02509190026091F1
:101040009102709192028DB79EB708970FB6F894EF
:101050009EBF0FBE8DBFEDB7FEB73196ABE0CA2E77
:10106000D12CCC0EDD1EADB7BEB71296DC92CE925F
:101070001197F382E28244835583668377830E94CB
:10108000BA492DB73EB7285F3F4F0FB6F8943EBF21
:101090000FBE2DBFC6010E944D0488E063E00E9490
:1010A00011044091B9025091BA026091BB02709153
:1010B000BC028DB79EB708970FB6F8949EBF0FBEBF
:1010C0008DBFEDB7FEB7319625E130E02C0F3D1F07
:1010D000ADB7BEB712963C932E931197F382E2827E
:1010E00044835583668377830E94BA498DB79EB740
:1010F00008960FB6F8949EBF0FBE8DBFCE014596E1
:101100000E944D0491E09EAF9924939400E01DAE9F
:1011100073E3672E712C6C0E7D1E64E3862E59E2FC
:10112000452E512C4C0E5D1E4FE1242E312C2C0EE1
:101130003D1EDE0155962496BFAFAEAF2497AFAFEC
:101140002196BFAF21972296CFAE2297CD2C1B2D93
:101150000C9448260E94A10490936903809368032D
:1011600000D000D000D0EDB7FEB7319622EF32E0CC
:10117000ADB7BEB712963C932E9311978CE791E0D2
:10118000938382839EAD948315820E94BA49ADB742
:10119000BEB716960FB6F894BEBF0FBEADBF82EFB6
:1011A00092E00E94ED0200D000D000D0EDB7FEB773
:1011B000319622EF32E0ADB7BEB712963C932E9334
:1011C00011978FE791E093838283809168039091D8
:1011D0006903958384830E94BA49ADB7BEB716965A
:1011E0000FB6F894BEBF0FBEADBF82EF92E00E9473
:1011F000ED028DE00E9421018091680390916903C6
:101200008134910561F488EB9BE0E0E9F1E03197EE
:10121000F1F70197D1F7BEADB150BEAF28C082340F
:10122000910561F488EB9BE0E0E9F1E03197F1F79B
:101230000197D1F72EAD2F5F2EAF19C083349105E2
:1012400051F488EB9BE0E0E9F1E03197F1F7019789
:10125000D1F79A9412C08434910549F488EB9BE04D
:10126000E0E9F1E03197F1F70197D1F793943EADC2
:10127000373018F086E08EAF05C09EAD992311F48B
:10128000A1E0AEAFB7E0B91518F437E0932E04C073
:10129000992011F4992493942EAD243008F0C9C0FC
:1012A000002311F00C94C2260E94250480E060E027
:1012B0000E9411048FE491E00E944D0480E061E0FF
:1012C0000E94110480E691E00E944D0480E062E0FB
:1012D0000E94110487E691E00E944D0480E063E0E3
:1012E0000E9411048EE691E00E944D0488E061E0C6
:1012F0000E94110440919B0250919C0260919D02BA
:1013000070919E028DB79EB708970FB6F8949EBF56
:101310000FBE8DBFEDB7FEB73196ADB7BEB7119614
:10132000AC92119712961C93E282F3824483558308
:10133000668377830E94BA492DB73EB7285F3F4F37
:101340000FB6F8943EBF0FBE2DBF8A2D912F0E947D
:101350004D0488E062E00E94110440918F02509198
:10136000900260919102709192028DB79EB708979A
:101370000FB6F8949EBF0FBE8DBFEDB7FEB7319686
:1013800022962FAD2297ADB7BEB711962C93119729
:101390001296CC92E282F3824483558366837783EC
:1013A0000E94BA498DB79EB708960FB6F8949EBFB3
:1013B0000FBE8DBF22968FAD22979C2D0E944D04AB
:1013C00088E063E00E9411044091B9025091BA0292
:1013D0006091BB027091BC02ADB7BEB718970FB653
:1013E000F894BEBF0FBEADBFEDB7FEB731962FADBF
:1013F00011962C93119721963FAD219712963C930D
:10140000E282F38244835583668377830E94BA49DC
:101410008DB79EB708960FB6F8949EBF0FBE8DBFCE
:101420008FAD21969FAD21970E944D041DAE0C9467
:10143000C2269DAD992309F095C582E891E00E94EE
:10144000ED020E94250480E060E00E9411048FE418
:1014500091E00E944D0480E061E00E94110489E85F
:1014600091E00E944D0480E062E00E94110480E956
:1014700091E00E944D0480E063E00E94110487E93E
:1014800091E00E944D0488E061E00E9411044091C7
:10149000AD025091AE026091AF027091B002ADB753
:1014A000BEB718970FB6F894BEBF0FBEADBFEDB76D
:1014B000FEB7319612963C922E921197E282F382F9
:1014C00044835583668377830E94BA492DB73EB71C
:1014D000285F3F4F0FB6F8943EBF0FBE2DBFC1012E
:1014E0000E944D0488E062E00E9411044091EA02EB
:1014F0005091EB026091EC027091ED028DB79EB7B6
:1015000008970FB6F8949EBF0FBE8DBFEDB7FEB71C
:101510003196ADB7BEB712965C924E921197E282A9
:10152000F38244835583668377830E94BA492DB73B
:101530003EB7285F3F4F0FB6F8943EBF0FBE2DBF9A
:10154000C2010E944D0488E063E00E9411044091B2
:101550007E0250917F0260918002709181028DB76E
:101560009EB708970FB6F8949EBF0FBE8DBFEDB71C
:10157000FEB73196ADB7BEB712967C926E921197B8
:10158000E282F38244835583668377830E94BA495B
:101590002DB73EB7285F3F4F0FB6F8943EBF0FBE42
:1015A0002DBFC3010E944D0400E031E03DAFDAC41D
:1015B00084E0981609F479C2891560F092E09916D2
:1015C00009F4DAC0991508F4AAC1A1E09A1609F045
:1015D000C8C40CC0B6E09B1609F437C39B1608F4C8
:1015E0006EC227E0921609F0BCC4F5C38A2D912F74
:1015F0000E94934860939B0270939C0280939D028B
:1016000090939E0288E061E00E94110440919B0249
:1016100050919C0260919D0270919E028DB79EB781
:1016200008970FB6F8949EBF0FBE8DBFEDB7FEB7FB
:101630003196ADB7BEB71196AC92119712961C9326
:10164000E282F38244835583668377830E94BA499A
:101650002DB73EB7285F3F4F0FB6F8943EBF0FBE81
:101660002DBF8A2D912F0E944D0488E061E00E94D9
:1016700011048FE00E94FD0380916803909169033B
:101680008433910509F441C0853391058CF481338D
:10169000910519F18233910524F4C09709F061C4D2
:1016A00063C08233910509F1C39709F05AC425C07C
:1016B0008733910509F440C0883391053CF48533A4
:1016C000910551F1C69709F04CC42EC0883391059D
:1016D000D9F1C99709F045C43FC08CE00E94FD03D1
:1016E00081E3898301E00C9448268CE00E94FD038D
:1016F00082E3898301E00C9448268CE00E94FD037C
:1017000083E3898301E00C9448268CE00E94FD036A
:10171000898201E00C9448268CE00E94FD0385E359
:10172000898301E00C9448268CE00E94FD0386E347
:10173000898301E00C9448268CE00E94FD0387E336
:10174000898301E00C9448268CE00E94FD0388E325
:10175000898301E00C9448268CE00E94FD0389E314
:10176000898301E00C9448268CE00E94FD0380E30D
:10177000898301E00C9448268A2D912F0E9493487A
:1017800060939B0270939C0280939D0290939E02B3
:1017900088E061E00E94110440919B0250919C02FC
:1017A00060919D0270919E028DB79EB708970FB60B
:1017B000F8949EBF0FBE8DBFEDB7FEB73196ADB7A3
:1017C000BEB71196AC92119712961C93E282F382E7
:1017D00044835583668377830E94BA492DB73EB709
:1017E000285F3F4F0FB6F8943EBF0FBE2DBF8A2D26
:1017F000912F0E944D0489E061E00E9411048FE066
:101800000E94FD03809168039091690384339105E0
:1018100009F44EC0853391058CF48133910521F193
:101820008233910524F4C09709F09BC370C08233C2
:10183000910571F1C39709F094C332C087339105C4
:1018400009F44DC0883391053CF485339105B9F115
:10185000C69709F086C33BC08833910509F447C099
:10186000C99709F07EC34BC08CE00E94FD0381E361
:101870008A838A2D912F0E94934860939B027093D4
:101880009C0280939D0290939E0201E00C94482656
:101890008CE00E94FD0382E38A8301E00C944826D9
:1018A0008CE00E94FD0383E38A8301E00C944826C8
:1018B0008CE00E94FD038A8201E00C9448268CE0B3
:1018C0000E94FD0385E38A8301E00C9448268CE0A6
:1018D0000E94FD0386E38A8301E00C9448268CE095
:1018E0000E94FD0387E38A8301E00C9448268CE084
:1018F0000E94FD0388E38A8301E00C9448268CE073
:101900000E94FD0389E38A8301E00C9448268CE061
:101910000E94FD0380E38A8301E00C9448268A2D0F
:10192000912F0E94934860939B0270939C02809336
:101930009D0290939E0288E061E00E941104409114
:101940009B0250919C0260919D0270919E028DB706
:101950009EB708970FB6F8949EBF0FBE8DBFEDB728
:10196000FEB73196ADB7BEB71196AC9211971296ED
:101970001C93E282F38244835583668377830E94BB
:10198000BA492DB73EB7285F3F4F0FB6F8943EBF18
:101990000FBE2DBF8A2D912F0E944D048AE061E079
:1019A0000E9411048FE00E94FD03809168039091D2
:1019B00069038433910509F441C0853391058CF4A2
:1019C0008133910519F18233910524F4C09709F010
:1019D000C8C263C08233910509F1C39709F0C1C23F
:1019E00025C08733910509F440C0883391053CF444
:1019F0008533910551F1C69709F0B3C22EC08833E3
:101A00009105D9F1C99709F0ACC23FC08CE00E94A2
:101A1000FD0381E38B8301E00C9448268CE00E9457
:101A2000FD0382E38B8301E00C9448268CE00E9446
:101A3000FD0383E38B8301E00C9448268CE00E9435
:101A4000FD038B8201E00C9448268CE00E94FD038C
:101A500085E38B8301E00C9448268CE00E94FD0313
:101A600086E38B8301E00C9448268CE00E94FD0302
:101A700087E38B8301E00C9448268CE00E94FD03F1
:101A800088E38B8301E00C9448268CE00E94FD03E0
:101A900089E38B8301E00C9448268CE00E94FD03CF
:101AA00080E38B8301E00C9448268BE061E00E9488
:101AB00011048FE00E94FD0301E00C9448268A2D5A
:101AC000912F0E94934860939B0270939C02809395
:101AD0009D0290939E0288E061E00E941104409173
:101AE0009B0250919C0260919D0270919E028DB765
:101AF0009EB708970FB6F8949EBF0FBE8DBFEDB787
:101B0000FEB73196ADB7BEB71196AC92119712964B
:101B10001C93E282F38244835583668377830E9419
:101B2000BA492DB73EB7285F3F4F0FB6F8943EBF76
:101B30000FBE2DBF8A2D912F0E944D048CE061E0D5
:101B40000E9411048FE00E94FD0380916803909130
:101B500069038433910509F441C0853391058CF400
:101B60008133910519F18233910524F4C09709F06E
:101B7000F8C163C08233910509F1C39709F0F1C13F
:101B800025C08733910509F440C0883391053CF4A2
:101B90008533910551F1C69709F0E3C12EC0883312
:101BA0009105D9F1C99709F0DCC13FC08CE00E94D2
:101BB000FD0381E38D8301E00C9448268CE00E94B4
:101BC000FD0382E38D8301E00C9448268CE00E94A3
:101BD000FD0383E38D8301E00C9448268CE00E9492
:101BE000FD038D8201E00C9448268CE00E94FD03E9
:101BF00085E38D8301E00C9448268CE00E94FD0370
:101C000086E38D8301E00C9448268CE00E94FD035E
:101C100087E38D8301E00C9448268CE00E94FD034D
:101C200088E38D8301E00C9448268CE00E94FD033C
:101C300089E38D8301E00C9448268CE00E94FD032B
:101C400080E38D8301E00C9448268A2D912F0E9419
:101C5000934860939B0270939C0280939D029093A3
:101C60009E0288E061E00E94110440919B02509125
:101C70009C0260919D0270919E028DB79EB708975D
:101C80000FB6F8949EBF0FBE8DBFEDB7FEB731966D
:101C9000ADB7BEB71196AC92119712961C93E28223
:101CA000F38244835583668377830E94BA492DB7B4
:101CB0003EB7285F3F4F0FB6F8943EBF0FBE2DBF13
:101CC0008A2D912F0E944D048DE061E00E94110445
:101CD0008FE00E94FD038091680390916903843333
:101CE000910509F441C0853391058CF48133910548
:101CF00019F18233910524F4C09709F032C163C011
:101D00008233910509F1C39709F02BC125C08733B0
:101D1000910509F440C0883391053CF48533910561
:101D200051F1C69709F01DC12EC088339105D9F134
:101D3000C99709F016C13FC08CE00E94FD0381E302
:101D40008E8301E00C9448268CE00E94FD0382E320
:101D50008E8301E00C9448268CE00E94FD0383E30F
:101D60008E8301E00C9448268CE00E94FD038E8255
:101D700001E00C9448268CE00E94FD0385E38E83ED
:101D800001E00C9448268CE00E94FD0386E38E83DC
:101D900001E00C9448268CE00E94FD0387E38E83CB
:101DA00001E00C9448268CE00E94FD0388E38E83BA
:101DB00001E00C9448268CE00E94FD0389E38E83A9
:101DC00001E00C9448268CE00E94FD0380E38E83A2
:101DD00001E00C9448268A2D912F0E94934860932D
:101DE0009B0270939C0280939D0290939E0288E0D8
:101DF00061E00E94110440919B0250919C0260910D
:101E00009D0270919E028DB79EB708970FB6F89409
:101E10009EBF0FBE8DBFEDB7FEB73196ADB7BEB753
:101E20001196AC92119712961C93E282F38244832E
:101E30005583668377830E94BA492DB73EB7285FE2
:101E40003F4F0FB6F8943EBF0FBE2DBF8A2D912F86
:101E50000E944D048EE061E00E9411048FE00E9418
:101E6000FD0380916803909169038433910509F41F
:101E700041C0853391058CF48133910519F182338A
:101E8000910524F4C09709F06CC063C082339105BA
:101E900009F1C39709F065C025C08733910509F49E
:101EA00040C0883391053CF48533910551F1C697C4
:101EB00009F057C02EC088339105D9F1C99709F0B0
:101EC00050C03FC08CE00E94FD0381E38F8301E09E
:101ED0000C9448268CE00E94FD0382E38F8301E08E
:101EE0000C9448268CE00E94FD0383E38F8301E07D
:101EF0000C9448268CE00E94FD038F8201E00C9434
:101F000048268CE00E94FD0385E38F8301E00C945A
:101F100048268CE00E94FD0386E38F8301E00C9449
:101F200048268CE00E94FD0387E38F8301E00C9438
:101F300048268CE00E94FD0388E38F8301E00C9427
:101F400048268CE00E94FD0389E38F8301E00C9416
:101F500048268CE00E94FD0380E38F8301E00C940F
:101F6000482601E03EAD323009F0BDC484E0981649
:101F700009F467C2891568F092E0991609F4DBC08C
:101F8000991508F49BC1A1E09A1611F00C9448260B
:101F90000DC0B6E09B1609F420C39B1608F45AC284
:101FA00027E0921611F00C944826DAC322968FADE2
:101FB00022979C2D0E94934860938F027093900209
:101FC000809391029093920288E062E00E94110453
:101FD00040918F0250919002609191027091920213
:101FE0008DB79EB708970FB6F8949EBF0FBE8DBFF2
:101FF000EDB7FEB7319622962FAD2297ADB7BEB79B
:1020000011962C9311971296CC92E282F38244831C
:102010005583668377830E94BA498DB79EB7089629
:102020000FB6F8949EBF0FBE8DBF22968FAD22973C
:102030009C2D0E944D0488E062E00E9411048FE014
:102040000E94FD0380916803909169038433910598
:1020500009F441C0853391059CF48133910531F138
:10206000823391052CF4C09711F00C9448265CC083
:102070008233910511F1C39711F00C94482624C0C6
:1020800087339105E1F18833910544F48533910557
:1020900041F1C69711F00C9448262AC08833910567
:1020A000A9F1C99711F00C94482637C08CE00E9422
:1020B000FD0381E38B870C9448268CE00E94FD038E
:1020C00082E38B870C9448268CE00E94FD0383E317
:1020D0008B870C9448268CE00E94FD038B860C9421
:1020E00048268CE00E94FD0385E38B870C944826EC
:1020F0008CE00E94FD0386E38B870C9448268CE0DD
:102100000E94FD0387E38B870C9448268CE00E9495
:10211000FD0388E38B870C9448268CE00E94FD0326
:1021200089E38B870C9448268CE00E94FD0380E3B2
:102130008B870C94482622968FAD22979C2D0E9467
:10214000934860938F0270939002809391029093D2
:10215000920288E062E00E94110440918F02509147
:1021600090026091910270919202ADB7BEB718973C
:102170000FB6F894BEBF0FBEADBFEDB7FEB7319638
:1021800022962FAD229711962C9311971296CC92EE
:10219000E282F38244835583668377830E94BA493F
:1021A0008DB79EB708960FB6F8949EBF0FBE8DBF31
:1021B00022968FAD22979C2D0E944D0489E062E00B
:1021C0000E9411048FE00E94FD03809168039091AA
:1021D00069038433910509F441C0853391059CF46A
:1021E0008133910531F1823391052CF4C09711F0C0
:1021F0000C9448265CC08233910511F1C39711F00D
:102200000C94482624C087339105E1F18833910569
:1022100044F48533910541F1C69711F00C9448269A
:102220002AC088339105A9F1C99711F00C9448266A
:1022300037C08CE00E94FD0381E38C870C94482614
:102240008CE00E94FD0382E38C870C9448268CE08E
:102250000E94FD0383E38C870C9448268CE00E9447
:10226000FD038C860C9448268CE00E94FD0385E3D8
:102270008C870C9448268CE00E94FD0386E38C87B3
:102280000C9448268CE00E94FD0387E38C870C9415
:1022900048268CE00E94FD0388E38C870C94482636
:1022A0008CE00E94FD0389E38C870C9448268CE027
:1022B0000E94FD0380E38C870C94482622968FAD04
:1022C00022979C2D0E94934860938F0270939002F6
:1022D000809391029093920288E062E00E94110440
:1022E00040918F0250919002609191027091920200
:1022F000ADB7BEB718970FB6F894BEBF0FBEADBF4F
:10230000EDB7FEB7319622962FAD229711962C93FA
:1023100011971296CC92E282F382448355836683AE
:1023200077830E94BA498DB79EB708960FB6F89486
:102330009EBF0FBE8DBF22968FAD22979C2D0E940F
:102340004D048AE062E00E9411048FE00E94FD03C8
:1023500080916803909169038433910509F441C029
:10236000853391059CF48133910531F182339105D8
:102370002CF4C09711F00C9448265CC08233910570
:1023800011F1C39711F00C94482624C087339105AE
:10239000E1F18833910544F48533910541F1C69705
:1023A00011F00C9448262AC088339105A9F1C997E9
:1023B00011F00C94482637C08CE00E94FD0381E3A5
:1023C0008D870C9448268CE00E94FD0382E38D8764
:1023D0000C9448268CE00E94FD0383E38D870C94C7
:1023E00048268CE00E94FD038D860C9448268CE0E4
:1023F0000E94FD0385E38D870C9448268CE00E94A3
:10240000FD0386E38D870C9448268CE00E94FD0333
:1024100087E38D870C9448268CE00E94FD0388E3B7
:102420008D870C9448268CE00E94FD0389E38D87FC
:102430000C9448268CE00E94FD0380E38D870C9469
:1024400048268BE062E00E9411048FE00E94FD03A9
:102450000C94482622968FAD22979C2D0E9493487B
:1024600060938F02709390028093910290939202F6
:1024700088E062E00E94110440918F025091900226
:102480006091910270919202ADB7BEB718970FB6E6
:10249000F894BEBF0FBEADBFEDB7FEB73196229622
:1024A0002FAD229711962C9311971296CC92E2821F
:1024B000F38244835583668377830E94BA498DB73C
:1024C0009EB708960FB6F8949EBF0FBE8DBF22969A
:1024D0008FAD22979C2D0E944D048CE062E00E94FB
:1024E00011048FE00E94FD038091680390916903BD
:1024F0008433910509F441C0853391059CF48133FF
:10250000910531F1823391052CF4C09711F00C94B0
:1025100048265CC08233910511F1C39711F00C94E9
:10252000482624C087339105E1F18833910544F4AE
:102530008533910541F1C69711F00C9448262AC0C5
:1025400088339105A9F1C99711F00C94482637C03A
:102550008CE00E94FD0381E38F870C9448268CE079
:102560000E94FD0382E38F870C9448268CE00E9432
:10257000FD0383E38F870C9448268CE00E94FD03C3
:102580008F860C9448268CE00E94FD0385E38F879C
:102590000C9448268CE00E94FD0386E38F870C9400
:1025A00048268CE00E94FD0387E38F870C94482621
:1025B0008CE00E94FD0388E38F870C9448268CE012
:1025C0000E94FD0389E38F870C9448268CE00E94CB
:1025D000FD0380E38F870C94482622968FAD2297C7
:1025E0009C2D0E94934860938F0270939002809379
:1025F00091029093920288E062E00E94110440915F
:102600008F02509190026091910270919202ADB749
:10261000BEB718970FB6F894BEBF0FBEADBFEDB7EB
:10262000FEB7319622962FAD229711962C931197D3
:102630001296CC92E282F382448355836683778339
:102640000E94BA498DB79EB708960FB6F8949EBF00
:102650000FBE8DBF22968FAD22979C2D0E944D04F8
:102660008DE062E00E9411048FE00E94FD038091E2
:102670006803909169038433910509F441C085335F
:1026800091059CF48133910531F1823391052CF44D
:10269000C09711F00C9448265CC08233910511F16B
:1026A000C39711F00C94482624C087339105E1F1BB
:1026B0008833910544F48533910541F1C69711F0B3
:1026C0000C9448262AC088339105A9F1C99711F0C6
:1026D0000C94482637C08CE00E94FD0381E3888B70
:1026E0000C9448268CE00E94FD0382E3888B0C94B6
:1026F00048268CE00E94FD0383E3888B0C944826D7
:102700008CE00E94FD03888A0C9448268CE00E948D
:10271000FD0385E3888B0C9448268CE00E94FD0322
:1027200086E3888B0C9448268CE00E94FD0387E3A7
:10273000888B0C9448268CE00E94FD0388E3888BEC
:102740000C9448268CE00E94FD0389E3888B0C944E
:1027500048268CE00E94FD0380E3888B0C94482679
:1027600022968FAD22979C2D0E94934860938F02F2
:1027700070939002809391029093920288E062E0BD
:102780000E94110440918F02509190026091910239
:1027900070919202ADB7BEB718970FB6F894BEBF4E
:1027A0000FBEADBFEDB7FEB7319622962FAD229783
:1027B00011962C9311971296CC92E282F382448365
:1027C0005583668377830E94BA498DB79EB7089672
:1027D0000FB6F8949EBF0FBE8DBF22968FAD229785
:1027E0009C2D0E944D048EE062E00E9411048FE057
:1027F0000E94FD03809168039091690384339105E1
:1028000009F441C0853391059CF48133910531F180
:10281000823391052CF4C09711F00C9448265CC0CB
:102820008233910511F1C39711F00C94482624C00E
:1028300087339105E1F18833910544F4853391059F
:1028400041F1C69711F00C9448262AC088339105AF
:10285000A9F1C99711F00C94482637C08CE00E946A
:10286000FD0381E3898B0C9448268CE00E94FD03D4
:1028700082E3898B0C9448268CE00E94FD0383E35D
:10288000898B0C9448268CE00E94FD03898A0C9465
:1028900048268CE00E94FD0385E3898B0C94482632
:1028A0008CE00E94FD0386E3898B0C9448268CE023
:1028B0000E94FD0387E3898B0C9448268CE00E94DC
:1028C000FD0388E3898B0C9448268CE00E94FD036D
:1028D00089E3898B0C9448268CE00E94FD0380E3F9
:1028E000898B0C9448269EAD933009F0C1C4A4E0B6
:1028F0009A1609F468C2A91568F0B2E09B1609F4AB
:10290000DAC0B91508F49BC121E0921611F00C94BD
:1029100048260DC036E0931609F422C3931608F436
:102920005BC287E0981611F00C944826DDC38FAD8A
:1029300021969FAD21970E9493486093B9027093AE
:10294000BA028093BB029093BC0288E063E00E94CD
:1029500011044091B9025091BA026091BB0270918A
:10296000BC02ADB7BEB718970FB6F894BEBF0FBE86
:10297000ADBFEDB7FEB731962FAD11962C931197E1
:1029800021963FAD219712963C93E282F3824483D5
:102990005583668377830E94BA498DB79EB70896A0
:1029A0000FB6F8949EBF0FBE8DBF8FAD21969FAD21
:1029B00021970E944D0488E063E00E9411048FE09B
:1029C0000E94FD038091680390916903843391050F
:1029D00009F441C0853391059CF48133910531F1AF
:1029E000823391052CF4C09711F00C9448265CC0FA
:1029F0008233910511F1C39711F00C94482624C03D
:102A000087339105E1F18833910544F485339105CD
:102A100041F1C69711F00C9448262AC088339105DD
:102A2000A9F1C99711F00C94482637C08CE00E9498
:102A3000FD0381E38D8B0C9448268CE00E94FD03FE
:102A400082E38D8B0C9448268CE00E94FD0383E387
:102A50008D8B0C9448268CE00E94FD038D8A0C948B
:102A600048268CE00E94FD0385E38D8B0C9448265C
:102A70008CE00E94FD0386E38D8B0C9448268CE04D
:102A80000E94FD0387E38D8B0C9448268CE00E9406
:102A9000FD0388E38D8B0C9448268CE00E94FD0397
:102AA00089E38D8B0C9448268CE00E94FD0380E323
:102AB0008D8B0C9448268FAD21969FAD21970E9457
:102AC00093486093B9027093BA028093BB029093CB
:102AD000BC0288E063E00E9411044091B902509169
:102AE000BA026091BB027091BC02ADB7BEB7189735
:102AF0000FB6F894BEBF0FBEADBFEDB7FEB73196AF
:102B00002FAD11962C93119721963FAD21971296D8
:102B10003C93E282F38244835583668377830E94E9
:102B2000BA498DB79EB708960FB6F8949EBF0FBEF0
:102B30008DBF8FAD21969FAD21970E944D0489E0F6
:102B400063E00E9411048FE00E94FD0380916803FE
:102B5000909169038433910509F441C0853391054F
:102B60009CF48133910531F1823391052CF4C097A7
:102B700011F00C9448265CC08233910511F1C39783
:102B800011F00C94482624C087339105E1F1883375
:102B9000910544F48533910541F1C69711F00C94E9
:102BA00048262AC088339105A9F1C99711F00C94E1
:102BB000482637C08CE00E94FD0381E38E8B0C9485
:102BC00048268CE00E94FD0382E38E8B0C944826FD
:102BD0008CE00E94FD0383E38E8B0C9448268CE0EE
:102BE0000E94FD038E8A0C9448268CE00E94FD030F
:102BF00085E38E8B0C9448268CE00E94FD0386E3CF
:102C00008E8B0C9448268CE00E94FD0387E38E8B0C
:102C10000C9448268CE00E94FD0388E38E8B0C9474
:102C200048268CE00E94FD0389E38E8B0C94482695
:102C30008CE00E94FD0380E38E8B0C9448268FADC0
:102C400021969FAD21970E9493486093B90270939B
:102C5000BA028093BB029093BC0288E063E00E94BA
:102C600011044091B9025091BA026091BB02709177
:102C7000BC02ADB7BEB718970FB6F894BEBF0FBE73
:102C8000ADBFEDB7FEB731962FAD11962C931197CE
:102C900021963FAD219712963C93E282F3824483C2
:102CA0005583668377830E94BA498DB79EB708968D
:102CB0000FB6F8949EBF0FBE8DBF8FAD21969FAD0E
:102CC00021970E944D048AE063E00E9411048FE086
:102CD0000E94FD03809168039091690384339105FC
:102CE00009F441C0853391059CF48133910531F19C
:102CF000823391052CF4C09711F00C9448265CC0E7
:102D00008233910511F1C39711F00C94482624C029
:102D100087339105E1F18833910544F485339105BA
:102D200041F1C69711F00C9448262AC088339105CA
:102D3000A9F1C99711F00C94482637C08CE00E9485
:102D4000FD0381E38F8B0C9448268CE00E94FD03E9
:102D500082E38F8B0C9448268CE00E94FD0383E372
:102D60008F8B0C9448268CE00E94FD038F8A0C9474
:102D700048268CE00E94FD0385E38F8B0C94482647
:102D80008CE00E94FD0386E38F8B0C9448268CE038
:102D90000E94FD0387E38F8B0C9448268CE00E94F1
:102DA000FD0388E38F8B0C9448268CE00E94FD0382
:102DB00089E38F8B0C9448268CE00E94FD0380E30E
:102DC0008F8B0C9448268BE063E00E9411048FE007
:102DD0000E94FD030C9448268FAD21969FAD21974C
:102DE0000E9493486093B9027093BA028093BB0229
:102DF0009093BC0288E063E00E9411044091B90204
:102E00005091BA026091BB027091BC02ADB7BEB7DF
:102E100018970FB6F894BEBF0FBEADBFEDB7FEB7A3
:102E200031962FAD11962C93119721963FAD219796
:102E300012963C93E282F3824483558366837783C0
:102E40000E94BA498DB79EB708960FB6F8949EBFF8
:102E50000FBE8DBF8FAD21969FAD21970E944D046F
:102E60008CE063E00E9411048FE00E94FD038091DA
:102E70006803909169038433910509F441C0853357
:102E800091059CF48133910531F1823391052CF445
:102E9000C09711F00C9448265CC08233910511F163
:102EA000C39711F00C94482624C087339105E1F1B3
:102EB0008833910544F48533910541F1C69711F0AB
:102EC0000C9448262AC088339105A9F1C99711F0BE
:102ED0000C94482637C08CE00E94FD0381E3898F63
:102EE0000C9448268CE00E94FD0382E3898F0C94A9
:102EF00048268CE00E94FD0383E3898F0C944826CA
:102F00008CE00E94FD03898E0C9448268CE00E9480
:102F1000FD0385E3898F0C9448268CE00E94FD0315
:102F200086E3898F0C9448268CE00E94FD0387E39A
:102F3000898F0C9448268CE00E94FD0388E3898FDA
:102F40000C9448268CE00E94FD0389E3898F0C9441
:102F500048268CE00E94FD0380E3898F0C9448266C
:102F60008FAD21969FAD21970E9493486093B9023F
:102F70007093BA028093BB029093BC0288E063E036
:102F80000E9411044091B9025091BA026091BB02B3
:102F90007091BC02ADB7BEB718970FB6F894BEBF1C
:102FA0000FBEADBFEDB7FEB731962FAD11962C9386
:102FB000119721963FAD219712963C93E282F382BE
:102FC00044835583668377830E94BA498DB79EB741
:102FD00008960FB6F8949EBF0FBE8DBF8FAD219699
:102FE0009FAD21970E944D048DE063E00E94110483
:102FF0008FE00E94FD038091680390916903843300
:10300000910509F441C0853391059CF48133910504
:1030100031F1823391052CF4C09711F00C944826BD
:103020005CC08233910511F1C39711F00C944826CE
:1030300024C087339105E1F18833910544F4853349
:10304000910541F1C69711F00C9448262AC08833A7
:103050009105A9F1C99711F00C94482637C08CE06E
:103060000E94FD0381E38A8F0C9448268CE00E9425
:10307000FD0382E38A8F0C9448268CE00E94FD03B6
:1030800083E38A8F0C9448268CE00E94FD038A8E8D
:103090000C9448268CE00E94FD0385E38A8F0C94F3
:1030A00048268CE00E94FD0386E38A8F0C94482614
:1030B0008CE00E94FD0387E38A8F0C9448268CE005
:1030C0000E94FD0388E38A8F0C9448268CE00E94BE
:1030D000FD0389E38A8F0C9448268CE00E94FD034F
:1030E00080E38A8F0C9448268FAD21969FAD21975F
:1030F0000E9493486093B9027093BA028093BB0216
:103100009093BC0288E063E00E9411044091B902F0
:103110005091BA026091BB027091BC02ADB7BEB7CC
:1031200018970FB6F894BEBF0FBEADBFEDB7FEB790
:1031300031962FAD11962C93119721963FAD219783
:1031400012963C93E282F3824483558366837783AD
:103150000E94BA498DB79EB708960FB6F8949EBFE5
:103160000FBE8DBF8FAD21969FAD21970E944D045C
:103170008EE063E00E9411048FE00E94FD038091C5
:103180006803909169038433910509F441C0853344
:1031900091059CF48133910531F1823391052CF432
:1031A000C09711F00C9448265CC08233910511F150
:1031B000C39711F00C94482624C087339105E1F1A0
:1031C0008833910544F48533910541F1C69711F098
:1031D0000C9448262AC088339105A9F1C99711F0AB
:1031E0000C94482637C08CE00E94FD0381E38B8F4E
:1031F0000C9448268CE00E94FD0382E38B8F0C9494
:1032000048268CE00E94FD0383E38B8F0C944826B4
:103210008CE00E94FD038B8E0C9448268CE00E946B
:10322000FD0385E38B8F0C9448268CE00E94FD0300
:1032300086E38B8F0C9448268CE00E94FD0387E385
:103240008B8F0C9448268CE00E94FD0388E38B8FC3
:103250000C9448268CE00E94FD0389E38B8F0C942C
:1032600048268CE00E94FD0380E38B8F0C94482657
:103270009EAD943009F096C488E061E00E9411048C
:103280008FE00E94FD03A4E09A1609F44EC2A9152E
:1032900068F0B2E09B1609F4D0C0B91508F489C1F2
:1032A00021E0921611F00C9448260DC036E09316DA
:1032B00009F400C3931608F441C287E0981611F090
:1032C0000C944826B3C3C1010E9493486093AD0299
:1032D0007093AE028093AF029093B00288E061E0F9
:1032E0000E9411044091AD025091AE026091AF0274
:1032F0007091B002ADB7BEB718970FB6F894BEBFC5
:103300000FBEADBFEDB7FEB7319612963C922E922E
:103310001197E282F38244835583668377830E9408
:10332000BA492DB73EB7285F3F4F0FB6F8943EBF5E
:103330000FBE2DBFC1010E944D0488E061E00E94D4
:1033400011048FE00E94FD0380916803909169034E
:103350008433910509F441C0853391059CF4813390
:10336000910531F1823391052CF4C09711F00C9442
:1033700048265CC08233910511F1C39711F00C947B
:10338000482624C087339105E1F18833910544F440
:103390008533910541F1C69711F00C9448262AC057
:1033A00088339105A9F1C99711F00C94482637C0CC
:1033B0008CE00E94FD0381E38F8F0C9448268CE003
:1033C0000E94FD0382E38F8F0C9448268CE00E94BC
:1033D000FD0383E38F8F0C9448268CE00E94FD034D
:1033E0008F8E0C9448268CE00E94FD0385E38F8F1E
:1033F0000C9448268CE00E94FD0386E38F8F0C948A
:1034000048268CE00E94FD0387E38F8F0C944826AA
:103410008CE00E94FD0388E38F8F0C9448268CE09B
:103420000E94FD0389E38F8F0C9448268CE00E9454
:10343000FD0380E38F8F0C944826C1010E949348BE
:103440006093AD027093AE028093AF029093B0028E
:1034500088E061E00E9411044091AD025091AE02FB
:103460006091AF027091B0028DB79EB708970FB60A
:10347000F8949EBF0FBE8DBFEDB7FEB73196ADB7C6
:10348000BEB712963C922E921197E282F382448349
:103490005583668377830E94BA492DB73EB7285F6C
:1034A0003F4F0FB6F8943EBF0FBE2DBFC1010E9423
:1034B0004D0489E061E00E9411048FE00E94FD0349
:1034C00080916803909169038433910509F441C0A8
:1034D000853391059CF48133910531F18233910557
:1034E0002CF4C09711F00C9448265CC082339105EF
:1034F00011F1C39711F00C94482624C0873391052D
:10350000E1F18833910544F48533910541F1C69783
:1035100011F00C9448262AC088339105A9F1C99767
:1035200011F00C94482637C08CE00E94FD0381E323
:1035300088A30C9448268CE00E94FD0382E388A3B4
:103540000C9448268CE00E94FD0383E388A30C942E
:1035500048268CE00E94FD0388A20C9448268CE04B
:103560000E94FD0385E388A30C9448268CE00E940A
:10357000FD0386E388A30C9448268CE00E94FD039B
:1035800087E388A30C9448268CE00E94FD0388E31F
:1035900088A30C9448268CE00E94FD0389E388A34D
:1035A0000C9448268CE00E94FD0380E388A30C94D1
:1035B0004826C1010E9493486093AD027093AE0209
:1035C0008093AF029093B00288E061E00E94110402
:1035D0004091AD025091AE026091AF027091B00285
:1035E0008DB79EB708970FB6F8949EBF0FBE8DBFDC
:1035F000EDB7FEB73196ADB7BEB712963C922E929C
:103600001197E282F38244835583668377830E9415
:10361000BA492DB73EB7285F3F4F0FB6F8943EBF6B
:103620000FBE2DBFC1010E944D048AE061E00E94DF
:1036300011048FE00E94FD0380916803909169035B
:103640008433910509F441C0853391059CF481339D
:10365000910531F1823391052CF4C09711F00C944F
:1036600048265CC08233910511F1C39711F00C9488
:10367000482624C087339105E1F18833910544F44D
:103680008533910541F1C69711F00C9448262AC064
:1036900088339105A9F1C99711F00C94482637C0D9
:1036A0008CE00E94FD0381E389A30C9448268CE002
:1036B0000E94FD0382E389A30C9448268CE00E94BB
:1036C000FD0383E389A30C9448268CE00E94FD034C
:1036D00089A20C9448268CE00E94FD0385E389A30F
:1036E0000C9448268CE00E94FD0386E389A30C9489
:1036F00048268CE00E94FD0387E389A30C944826AA
:103700008CE00E94FD0388E389A30C9448268CE09A
:103710000E94FD0389E389A30C9448268CE00E9453
:10372000FD0380E389A30C9448268BE061E00E94AE
:1037300011048FE00E94FD030C944826C1010E94F1
:1037400093486093AD027093AE028093AF02909362
:10375000B00288E061E00E9411044091AD025091F6
:10376000AE026091AF027091B0028DB79EB708971C
:103770000FB6F8949EBF0FBE8DBFEDB7FEB7319662
:10378000ADB7BEB712963C922E921197E282F382A9
:1037900044835583668377830E94BA492DB73EB729
:1037A000285F3F4F0FB6F8943EBF0FBE2DBFC1013B
:1037B0000E944D048CE061E00E9411048FE00E94A1
:1037C000FD0380916803909169038433910509F4A6
:1037D00041C0853391059CF48133910531F18233E9
:1037E00091052CF4C09711F00C9448265CC08233EC
:1037F000910511F1C39711F00C94482624C087332A
:103800009105E1F18833910544F48533910541F147
:10381000C69711F00C9448262AC088339105A9F167
:10382000C99711F00C94482637C08CE00E94FD0324
:1038300081E38BA30C9448268CE00E94FD0382E375
:103840008BA30C9448268CE00E94FD0383E38BA39A
:103850000C9448268CE00E94FD038BA20C94482611
:103860008CE00E94FD0385E38BA30C9448268CE03A
:103870000E94FD0386E38BA30C9448268CE00E94F3
:10388000FD0387E38BA30C9448268CE00E94FD0384
:1038900088E38BA30C9448268CE00E94FD0389E307
:1038A0008BA30C9448268CE00E94FD0380E38BA33D
:1038B0000C944826C1010E9493486093AD02709316
:1038C000AE028093AF029093B00288E061E00E9464
:1038D00011044091AD025091AE026091AF0270911F
:1038E000B0028DB79EB708970FB6F8949EBF0FBE73
:1038F0008DBFEDB7FEB73196ADB7BEB712963C920D
:103900002E921197E282F3824483558366837783F4
:103910000E94BA492DB73EB7285F3F4F0FB6F894C3
:103920003EBF0FBE2DBFC1010E944D048DE061E07E
:103930000E9411048FE00E94FD0380916803909122
:1039400069038433910509F441C0853391059CF4E2
:103950008133910531F1823391052CF4C09711F038
:103960000C9448265CC08233910511F1C39711F085
:103970000C94482624C087339105E1F188339105E2
:1039800044F48533910541F1C69711F00C94482613
:103990002AC088339105A9F1C99711F00C944826E3
:1039A00037C08CE00E94FD0381E38CA30C94482671
:1039B0008CE00E94FD0382E38CA30C9448268CE0EB
:1039C0000E94FD0383E38CA30C9448268CE00E94A4
:1039D000FD038CA20C9448268CE00E94FD0385E335
:1039E0008CA30C9448268CE00E94FD0386E38CA3F4
:1039F0000C9448268CE00E94FD0387E38CA30C9472
:103A000048268CE00E94FD0388E38CA30C94482692
:103A10008CE00E94FD0389E38CA30C9448268CE083
:103A20000E94FD0380E38CA30C944826C1010E94F0
:103A300093486093AD027093AE028093AF0290936F
:103A4000B00288E061E00E9411044091AD02509103
:103A5000AE026091AF027091B0028DB79EB7089729
:103A60000FB6F8949EBF0FBE8DBFEDB7FEB731966F
:103A7000ADB7BEB712963C922E921197E282F382B6
:103A800044835583668377830E94BA492DB73EB736
:103A9000285F3F4F0FB6F8943EBF0FBE2DBFC10148
:103AA0000E944D048EE061E00E9411048FE00E94AC
:103AB000FD0380916803909169038433910509F4B3
:103AC00041C0853391059CF48133910531F18233F6
:103AD00091052CF4C09711F00C9448265CC08233F9
:103AE000910511F1C39711F00C94482624C0873337
:103AF0009105E1F18833910544F48533910541F155
:103B0000C69711F00C9448262AC088339105A9F174
:103B1000C99711F00C94482637C08CE00E94FD0331
:103B200081E38DA30C9448268CE00E94FD0382E380
:103B30008DA30C9448268CE00E94FD0383E38DA3A3
:103B40000C9448268CE00E94FD038DA20C9448261C
:103B50008CE00E94FD0385E38DA30C9448268CE045
:103B60000E94FD0386E38DA30C9448268CE00E94FE
:103B7000FD0387E38DA30C9448268CE00E94FD038F
:103B800088E38DA30C9448268CE00E94FD0389E312
:103B90008DA30C9448268CE00E94FD0380E38DA346
:103BA0000C9448263EAD353009F03CC484E09816AC
:103BB00009F429C2891568F092E0991609F4C9C080
:103BC000991508F473C1A1E09A1611F00C944826D7
:103BD0000DC0B6E09B1609F4CBC29B1608F41BC2BD
:103BE00027E0921611F00C9448266FC3C2010E9480
:103BF00093486093EA027093EB028093EC029093F7
:103C0000ED0288E062E00E9411044091EA025091C6
:103C1000EB026091EC027091ED028DB79EB70897B0
:103C20000FB6F8949EBF0FBE8DBFEDB7FEB73196AD
:103C3000ADB7BEB712965C924E921197E282F382B4
:103C400044835583668377830E94BA492DB73EB774
:103C5000285F3F4F0FB6F8943EBF0FBE2DBFC20185
:103C60000E944D0488E062E00E9411048FE00E94EF
:103C7000FD0380916803909169038433910509F4F1
:103C80003FC0853391059CF48133910531F1823336
:103C900091052CF4C09711F00C94482654C082333F
:103CA000910511F1C39711F00C94482623C0873376
:103CB0009105B9F18833910544F48533910529F1D3
:103CC000C69711F00C94482626C08833910579F1E7
:103CD000C99711F00C94482630C08CE00E94FD0377
:103CE00081E389A70C9448268CE00E94FD0382E3BF
:103CF00089A7CEC78CE00E94FD0383E389A7C8C7CC
:103D00008CE00E94FD0389A6C3C78CE00E94FD03DE
:103D100085E389A7BDC78CE00E94FD0386E389A7E0
:103D2000B7C78CE00E94FD0387E389A7B1C78CE089
:103D30000E94FD0388E389A7ABC78CE00E94FD03C6
:103D400089E389A7A5C78CE00E94FD0380E389A7CA
:103D50009FC7C2010E9493486093EA027093EB02EE
:103D60008093EC029093ED0288E062E00E941104DF
:103D70004091EA025091EB026091EC027091ED02E9
:103D80008DB79EB708970FB6F8949EBF0FBE8DBF34
:103D9000EDB7FEB73196ADB7BEB712965C924E92B4
:103DA0001197E282F38244835583668377830E946E
:103DB000BA492DB73EB7285F3F4F0FB6F8943EBFC4
:103DC0000FBE2DBFC2010E944D0489E062E00E9437
:103DD00011048FE00E94FD038091680390916903B4
:103DE00084339105D1F1853391058CF481339105AC
:103DF00011F18233910524F4C09709F049C750C0EE
:103E000082339105F1F0C39709F042C720C0873390
:103E10009105A1F1883391053CF48533910511F1A9
:103E2000C69709F035C724C08833910569F1C99751
:103E300009F02EC72FC08CE00E94FD0381E38AA702
:103E400027C78CE00E94FD0382E38AA721C78CE08C
:103E50000E94FD0383E38AA71BC78CE00E94FD0339
:103E60008AA616C78CE00E94FD0385E38AA710C7C7
:103E70008CE00E94FD0386E38AA70AC78CE00E94BB
:103E8000FD0387E38AA704C78CE00E94FD0388E353
:103E90008AA7FEC68CE00E94FD0389E38AA7F8C6C4
:103EA0008CE00E94FD0380E38AA7F2C6C2010E9453
:103EB00093486093EA027093EB028093EC02909334
:103EC000ED0288E062E00E9411044091EA02509104
:103ED000EB026091EC027091ED028DB79EB70897EE
:103EE0000FB6F8949EBF0FBE8DBFEDB7FEB73196EB
:103EF000ADB7BEB712965C924E921197E282F382F2
:103F000044835583668377830E94BA492DB73EB7B1
:103F1000285F3F4F0FB6F8943EBF0FBE2DBFC201C2
:103F20000E944D048AE062E00E9411048FE00E942A
:103F3000FD03809168039091690384339105D1F169
:103F4000853391058CF48133910511F1823391050C
:103F500024F4C09709F09CC650C082339105F1F05B
:103F6000C39709F095C620C087339105A1F1883326
:103F700091053CF48533910511F1C69709F088C687
:103F800024C08833910569F1C99709F081C62FC013
:103F90008CE00E94FD0381E38BA77AC68CE00E942F
:103FA000FD0382E38BA774C68CE00E94FD0383E3CC
:103FB0008BA76EC68CE00E94FD038BA669C68CE0C1
:103FC0000E94FD0385E38BA763C68CE00E94FD037E
:103FD00086E38BA75DC68CE00E94FD0387E38BA779
:103FE00057C68CE00E94FD0388E38BA751C68CE086
:103FF0000E94FD0389E38BA74BC68CE00E94FD0362
:1040000080E38BA745C68BE062E00E9411048FE03D
:104010000E94FD033DC6C2010E9493486093EA02DC
:104020007093EB028093EC029093ED0288E062E0E3
:104030000E9411044091EA025091EB026091EC025F
:104040007091ED028DB79EB708970FB6F8949EBF9A
:104050000FBE8DBFEDB7FEB73196ADB7BEB71296A6
:104060005C924E921197E282F38244835583668379
:1040700077830E94BA492DB73EB7285F3F4F0FB6EE
:10408000F8943EBF0FBE2DBFC2010E944D048CE0CC
:1040900062E00E9411048FE00E94FD03809168039A
:1040A0009091690384339105D1F1853391058CF4A6
:1040B0008133910511F18233910524F4C09709F001
:1040C000E7C550C082339105F1F0C39709F0E0C510
:1040D00020C087339105A1F1883391053CF48533E5
:1040E000910511F1C69709F0D3C524C08833910515
:1040F00069F1C99709F0CCC52FC08CE00E94FD037F
:1041000081E38DA7C5C58CE00E94FD0382E38DA7E6
:10411000BFC58CE00E94FD0383E38DA7B9C58CE089
:104120000E94FD038DA6B4C58CE00E94FD0385E3CB
:104130008DA7AEC58CE00E94FD0386E38DA7A8C5C0
:104140008CE00E94FD0387E38DA7A2C58CE00E944E
:10415000FD0388E38DA79CC58CE00E94FD0389E3E5
:104160008DA796C58CE00E94FD0380E38DA790C5C6
:10417000C2010E9493486093EA027093EB0280931D
:10418000EC029093ED0288E062E00E9411044091FD
:10419000EA025091EB026091EC027091ED028DB752
:1041A0009EB708970FB6F8949EBF0FBE8DBFEDB7B0
:1041B000FEB73196ADB7BEB712965C924E9211978C
:1041C000E282F38244835583668377830E94BA49EF
:1041D0002DB73EB7285F3F4F0FB6F8943EBF0FBED6
:1041E0002DBFC2010E944D048DE062E00E941104C7
:1041F0008FE00E94FD0380916803909169038433EE
:104200009105D1F1853391058CF48133910511F13C
:104210008233910524F4C09709F03AC550C0823327
:104220009105F1F0C39709F033C520C0873391059C
:10423000A1F1883391053CF48533910511F1C697BE
:1042400009F026C524C08833910569F1C99709F0A2
:104250001FC52FC08CE00E94FD0381E38EA718C507
:104260008CE00E94FD0382E38EA712C58CE00E94C1
:10427000FD0383E38EA70CC58CE00E94FD038EA690
:1042800007C58CE00E94FD0385E38EA701C58CE085
:104290000E94FD0386E38EA7FBC48CE00E94FD0311
:1042A00087E38EA7F5C48CE00E94FD0388E38EA708
:1042B000EFC48CE00E94FD0389E38EA7E9C48CE083
:1042C0000E94FD0380E38EA7E3C4C2010E949348CD
:1042D0006093EA027093EB028093EC029093ED02FC
:1042E00088E062E00E9411044091EA025091EB02E2
:1042F0006091EC027091ED028DB79EB708970FB6F2
:10430000F8949EBF0FBE8DBFEDB7FEB73196ADB727
:10431000BEB712965C924E921197E282F38244836A
:104320005583668377830E94BA492DB73EB7285FCD
:104330003F4F0FB6F8943EBF0FBE2DBFC2010E9483
:104340004D048EE062E00E9411048FE00E94FD03A4
:10435000809168039091690384339105D1F185338D
:1043600091058CF48133910511F18233910524F488
:10437000C09709F08DC450C082339105F1F0C39706
:1043800009F086C420C087339105A1F188339105D7
:104390003CF48533910511F1C69709F079C424C026
:1043A0008833910569F1C99709F072C42FC08CE078
:1043B0000E94FD0381E38FA76BC48CE00E94FD0384
:1043C00082E38FA765C48CE00E94FD0383E38FA77F
:1043D0005FC48CE00E94FD038FA65AC48CE00E944B
:1043E000FD0385E38FA754C48CE00E94FD0386E3A0
:1043F0008FA74EC48CE00E94FD0387E38FA748C4BB
:104400008CE00E94FD0388E38FA742C48CE00E94E9
:10441000FD0389E38FA73CC48CE00E94FD0380E389
:104420008FA736C43EAD363009F032C484E098160A
:1044300009F421C2891560F092E0991609F4C1C00F
:10444000991508F46BC1A1E09A1609F021C40CC0BB
:10445000B6E09B1609F4C4C29B1608F414C227E008
:10446000921609F015C469C3C3010E949348609372
:104470007E0270937F02809380029093810288E095
:1044800063E00E94110440917E0250917F0260918E
:104490008002709181028DB79EB708970FB6F8948D
:1044A0009EBF0FBE8DBFEDB7FEB73196ADB7BEB79D
:1044B00012967C926E921197E282F3824483558326
:1044C000668377830E94BA492DB73EB7285F3F4F76
:1044D0000FB6F8943EBF0FBE2DBFC3010E944D041E
:1044E00088E063E00E9411048FE00E94FD03809148
:1044F00068039091690384339105D1F18533910567
:104500008CF48133910511F18233910524F4C09725
:1045100009F0BEC350C082339105F1F0C39709F092
:10452000B7C320C087339105A1F1883391053CF4CE
:104530008533910511F1C69709F0AAC324C08833C9
:10454000910569F1C99709F0A3C32FC08CE00E94BF
:10455000FD0381E38BAB9CC38CE00E94FD0382E3EF
:104560008BAB96C38CE00E94FD0383E38BAB90C3BF
:104570008CE00E94FD038BAA8BC38CE00E94FD039C
:1045800085E38BAB85C38CE00E94FD0386E38BAB98
:104590007FC38CE00E94FD0387E38BAB79C38CE083
:1045A0000E94FD0388E38BAB73C38CE00E94FD0384
:1045B00089E38BAB6DC38CE00E94FD0380E38BAB82
:1045C00067C3C3010E94934860937E0270937F0289
:1045D000809380029093810288E063E00E9411043E
:1045E00040917E0250917F02609180027091810221
:1045F0008DB79EB708970FB6F8949EBF0FBE8DBFBC
:10460000EDB7FEB73196ADB7BEB712967C926E92FB
:104610001197E282F38244835583668377830E94F5
:10462000BA492DB73EB7285F3F4F0FB6F8943EBF4B
:104630000FBE2DBFC3010E944D0489E063E00E94BC
:1046400011048FE00E94FD0380916803909169033B
:1046500084339105D1F1853391058CF48133910533
:1046600011F18233910524F4C09709F011C350C0B1
:1046700082339105F1F0C39709F00AC320C0873354
:104680009105A1F1883391053CF48533910511F131
:10469000C69709F0FDC224C08833910569F1C99716
:1046A00009F0F6C22FC08CE00E94FD0381E38CABC1
:1046B000EFC28CE00E94FD0382E38CABE9C28CE088
:1046C0000E94FD0383E38CABE3C28CE00E94FD03F8
:1046D0008CAADEC28CE00E94FD0385E38CABD8C2BD
:1046E0008CE00E94FD0386E38CABD2C28CE00E947A
:1046F000FD0387E38CABCCC28CE00E94FD0388E312
:104700008CABC6C28CE00E94FD0389E38CABC0C2B7
:104710008CE00E94FD0380E38CABBAC2C3010E940F
:10472000934860937E0270937F02809380029093FF
:10473000810288E063E00E94110440917E02509162
:104740007F0260918002709181028DB79EB70897B9
:104750000FB6F8949EBF0FBE8DBFEDB7FEB7319672
:10476000ADB7BEB712967C926E921197E282F38239
:1047700044835583668377830E94BA492DB73EB739
:10478000285F3F4F0FB6F8943EBF0FBE2DBFC30149
:104790000E944D048AE063E00E9411048FE00E94B1
:1047A000FD03809168039091690384339105D1F1F1
:1047B000853391058CF48133910511F18233910594
:1047C00024F4C09709F064C250C082339105F1F01F
:1047D000C39709F05DC220C087339105A1F18833EA
:1047E00091053CF48533910511F1C69709F050C24B
:1047F00024C08833910569F1C99709F049C22FC0D7
:104800008CE00E94FD0381E38DAB42C28CE00E94EC
:10481000FD0382E38DAB3CC28CE00E94FD0383E389
:104820008DAB36C28CE00E94FD038DAA31C28CE0B4
:104830000E94FD0385E38DAB2BC28CE00E94FD033B
:1048400086E38DAB25C28CE00E94FD0387E38DAB30
:104850001FC28CE00E94FD0388E38DAB19C28CE07F
:104860000E94FD0389E38DAB13C28CE00E94FD031F
:1048700080E38DAB0DC28BE063E00E9411048FE0FA
:104880000E94FD0305C2C3010E94934860937E020B
:1048900070937F02809380029093810288E063E0AE
:1048A0000E94110440917E0250917F02609180022B
:1048B000709181028DB79EB708970FB6F8949EBF8E
:1048C0000FBE8DBFEDB7FEB73196ADB7BEB712962E
:1048D0007C926E921197E282F382448355836683C1
:1048E00077830E94BA492DB73EB7285F3F4F0FB676
:1048F000F8943EBF0FBE2DBFC3010E944D048CE053
:1049000063E00E9411048FE00E94FD038091680320
:104910009091690384339105D1F1853391058CF42D
:104920008133910511F18233910524F4C09709F088
:10493000AFC150C082339105F1F0C39709F0A8C10F
:1049400020C087339105A1F1883391053CF485336C
:10495000910511F1C69709F09BC124C088339105D8
:1049600069F1C99709F094C12FC08CE00E94FD0342
:1049700081E38FAB8DC18CE00E94FD0382E38FAB9E
:1049800087C18CE00E94FD0383E38FAB81C18CE083
:104990000E94FD038FAA7CC18CE00E94FD0385E389
:1049A0008FAB76C18CE00E94FD0386E38FAB70C1B4
:1049B0008CE00E94FD0387E38FAB6AC18CE00E940C
:1049C000FD0388E38FAB64C18CE00E94FD0389E3A3
:1049D0008FAB5EC18CE00E94FD0380E38FAB58C1BA
:1049E000C3010E94934860937E0270937F0280937C
:1049F00080029093810288E063E00E94110440915C
:104A00007E0250917F0260918002709181028DB789
:104A10009EB708970FB6F8949EBF0FBE8DBFEDB737
:104A2000FEB73196ADB7BEB712967C926E921197D3
:104A3000E282F38244835583668377830E94BA4976
:104A40002DB73EB7285F3F4F0FB6F8943EBF0FBE5D
:104A50002DBFC3010E944D048DE063E00E9411044C
:104A60008FE00E94FD038091680390916903843375
:104A70009105D1F1853391058CF48133910511F1C4
:104A80008233910524F4C09709F002C150C08233EB
:104A90009105F1F0C39709F0FBC020C08733910561
:104AA000A1F1883391053CF48533910511F1C69746
:104AB00009F0EEC024C08833910569F1C99709F067
:104AC000E7C02FC08CE00E94FD0381E388AFE0C007
:104AD0008CE00E94FD0382E388AFDAC08CE00E9484
:104AE000FD0383E388AFD4C08CE00E94FD0388AE51
:104AF000CFC08CE00E94FD0385E388AFC9C08CE085
:104B00000E94FD0386E388AFC3C08CE00E94FD03D2
:104B100087E388AFBDC08CE00E94FD0388E388AFC7
:104B2000B7C08CE00E94FD0389E388AFB1C08CE080
:104B30000E94FD0380E388AFABC0C3010E9493488D
:104B400060937E0270937F02809380029093810233
:104B500088E063E00E94110440917E0250917F0240
:104B600060918002709181028DB79EB708970FB651
:104B7000F8949EBF0FBE8DBFEDB7FEB73196ADB7AF
:104B8000BEB712967C926E921197E282F3824483B2
:104B90005583668377830E94BA492DB73EB7285F55
:104BA0003F4F0FB6F8943EBF0FBE2DBFC3010E940A
:104BB0004D048EE063E00E9411048FE00E94FD032B
:104BC000809168039091690384339105C9F185331D
:104BD00091058CF48133910509F18233910524F418
:104BE000C09709F055C04FC082339105E9F0C397D3
:104BF00009F04EC01FC08733910599F188339105A4
:104C00003CF48533910509F1C69709F041C023C0F2
:104C10008833910561F1C997D9F52FC08CE00E94C6
:104C2000FD0381E389AF34C08CE00E94FD0382E381
:104C300089AF2EC08CE00E94FD0383E389AF28C0BA
:104C40008CE00E94FD0389AE23C08CE00E94FD032E
:104C500085E389AF1DC08CE00E94FD0386E389AF28
:104C600017C08CE00E94FD0387E389AF11C08CE080
:104C70000E94FD0388E389AF0BC08CE00E94FD0316
:104C800089E389AF05C08CE00E94FD0380E389AF12
:104C900080916803909169038A9711F00C94AA0897
:104CA00006C00E94A10490936903809368038091D9
:104CB00052038130B1F340919B0250919C0260916C
:104CC0009D0270919E0280E090E00E944F4A4091C8
:104CD0008F025091900260919102709192028FE93F
:104CE00092E00E944F4A4091B9025091BA026091FD
:104CF000BB027091BC0286E493E00E944F4A40914F
:104D0000AD025091AE026091AF027091B0028AE89C
:104D100092E00E944F4A4091EA025091EB0260916A
:104D2000EC027091ED028DEB92E00E944F4A4091AF
:104D30007E0250917F02609180027091810283E532
:104D400093E00E944F4A8CE00E94FD030E942504DC
:104D5000CD5BDF4F0FB6F894DEBF0FBECDBFCF9156
:104D6000DF911F910F91FF90EF90DF90CF90BF9058
:104D7000AF909F908F907F906F905F904F903F90FB
:104D80002F9008953EAD313011F40C94D80A0C9454
:104D9000B10F2F923F924F925F926F927F928F92BC
:104DA0009F92AF92BF92CF92DF92EF92FF920F93BA
:104DB0001F93DF93CF93CDB7DEB7AC970FB6F894C0
:104DC000DEBF0FBECDBF8BE593E00E94494A6093E2
:104DD000420370934303809344039093450383EA13
:104DE00092E00E94494A6093B1027093B2028093AC
:104DF000B3029093B4028AE493E00E94494A60931C
:104E0000EE027093EF028093F0029093F10282E839
:104E100092E00E94494A60939302709394028093B7
:104E20009502909396020E94250480E060E00E9423
:104E300011048DE991E00E944D0480E061E00E9440
:104E4000110480EB91E00E944D0480E062E00E943A
:104E5000110483EB91E00E944D0480E063E00E9426
:104E6000110486EB91E00E944D0488E061E00E940D
:104E7000110440919B0250919C0260919D0270919F
:104E80009E022DB73EB7285030400FB6F8943EBF73
:104E90000FBE2DBFEDB7FEB731965E010894A11C81
:104EA000B11CADB7BEB71296BC92AE921197B5E7E2
:104EB000EB2EB1E0FB2EF382E282448355836683BE
:104EC00077830E94BA492DB73EB7285F3F4F0FB690
:104ED000F8943EBF0FBE2DBFC5010E944D048FE068
:104EE0000E94FD0388E062E00E94110440918F025D
:104EF0005091900260919102709192028DB79EB78D
:104F000008970FB6F8949EBF0FBE8DBFEDB7FEB7E2
:104F10003196ABE0CA2ED12CCC0EDD1EADB7BEB79C
:104F20001296DC92CE921197F382E28244835583EB
:104F3000668377830E94BA492DB73EB7285F3F4FFB
:104F40000FB6F8943EBF0FBE2DBFC6010E944D04A0
:104F500088E063E00E9411044091B9025091BA02C6
:104F60006091BB027091BC028DB79EB708970FB6D7
:104F7000F8949EBF0FBE8DBFEDB7FEB7319625E109
:104F800030E02C0F3D1FADB7BEB712963C932E9369
:104F90001197F382E28244835583668377830E946C
:104FA000BA498DB79EB708960FB6F8949EBF0FBE4C
:104FB0008DBFCE0145960E944D049924939400E044
:104FC00019A691E09AA74FE1442E512C4C0E5D1E7C
:104FD00034E3332E27E3222E95E3692EDE01559626
:104FE000BCA7ABA78BA47CA41B2D0C94073B0E94F1
:104FF000A104909369038093680300D000D000D08F
:10500000EDB7FEB7319622EF32E0ADB7BEB71296DC
:105010003C932E9311978CE791E0938382839AA51A
:10502000948315820E94BA49ADB7BEB716960FB6E3
:10503000F894BEBF0FBEADBF82EF92E00E94ED02BA
:1050400000D000D000D0EDB7FEB7319622EF32E0AD
:10505000ADB7BEB712963C932E9311978FE791E0B0
:1050600093838283809168039091690395838483FD
:105070000E94BA49ADB7BEB716960FB6F894BEBF38
:105080000FBEADBF82EF92E00E94ED028DE00E9464
:10509000210180916803909169038134910561F445
:1050A00088EB9BE0E0E9F1E03197F1F70197D1F768
:1050B000BAA5B150BAA728C08234910561F488EB33
:1050C0009BE0E0E9F1E03197F1F70197D1F72AA5EC
:1050D0002F5F2AA719C08334910551F488EB9BE018
:1050E000E0E9F1E03197F1F70197D1F79A9412C016
:1050F0008434910549F488EB9BE0E0E9F1E03197D5
:10510000F1F70197D1F793943AA5353018F084E080
:105110008AA705C09AA5992311F4A1E0AAA7B7E030
:10512000B91518F487E0982E04C0992011F4992439
:1051300093942AA5243009F4C1C0002311F00C94E3
:10514000683B0E94250480E060E00E9411048DE924
:1051500091E00E944D0480E061E00E94110480EB28
:1051600091E00E944D0480E062E00E94110483EB14
:1051700091E00E944D0480E063E00E94110486EB00
:1051800091E00E944D0488E061E00E94110440918A
:1051900042035091430360914403709145038DB7DE
:1051A0009EB708970FB6F8949EBF0FBE8DBFEDB7A0
:1051B000FEB73196ADB7BEB71196AC921197129665
:1051C0001C93E282F38244835583668377830E9433
:1051D000BA492DB73EB7285F3F4F0FB6F8943EBF90
:1051E0000FBE2DBF8A2D912F0E944D0488E062E0F2
:1051F0000E9411044091B1025091B2026091B30239
:105200007091B4028DB79EB708970FB6F8949EBF01
:105210000FBE8DBFEDB7FEB73196ADB7BEB71196D5
:10522000CC9211971296DC92E282F38244835583EA
:10523000668377830E94BA492DB73EB7285F3F4FF8
:105240000FB6F8943EBF0FBE2DBFC6010E944D049D
:1052500088E063E00E9411044091EE025091EF0259
:105260006091F0027091F1028DB79EB708970FB66A
:10527000F8949EBF0FBE8DBFEDB7FEB73196ADB7A8
:10528000BEB711968C92119712967C92E282F382AD
:1052900044835583668377830E94BA492DB73EB70E
:1052A000285F3F4F0FB6F8943EBF0FBE2DBF882D2D
:1052B000972D0E944D0419A60C94683B39A5332301
:1052C00011F00C946F3B82E891E00E94ED020E9485
:1052D000250480E060E00E9411048DE991E00E94C5
:1052E0004D0480E061E00E94110489EB91E00E948E
:1052F0004D0488E061E00E941104409193025091B6
:10530000940260919502709196028DB79EB70897AE
:105310000FB6F8949EBF0FBE8DBFEDB7FEB73196A6
:10532000ADB7BEB712965C924E921197E282F382AD
:1053300044835583668377830E94BA492DB73EB76D
:10534000285F3F4F0FB6F8943EBF0FBE2DBFC2017E
:105350000E944D0400E00C946F3B34E0931609F476
:1053600041C2391568F082E0981609F4D5C0891554
:1053700008F48CC191E0991611F00C94A9320DC07B
:10538000A6E09A1609F4E2C29A1608F433C2B7E00E
:105390009B1611F00C94A93285C38A2D912F0E947F
:1053A0009348609342037093430380934403909324
:1053B000450388E061E00E9411044091420350914E
:1053C000430360914403709145032DB73EB72850C5
:1053D00030400FB6F8943EBF0FBE2DBFEDB7FEB7FD
:1053E0003196ADB7BEB71196AC92119712961C9339
:1053F000E282F38244835583668377830E94BA49AD
:105400002DB73EB7285F3F4F0FB6F8943EBF0FBE93
:105410002DBF8A2D912F0E944D0488E061E00E94EB
:1054200011048FE00E94FD0380916803909169034D
:105430008433910509F442C0853391059CF481338E
:10544000910531F1823391052CF4C09711F00C9441
:10545000A9325BC08233910519F1C39711F00C9406
:10546000A93225C087339105E1F18833910544F4D1
:105470008533910549F1C69711F00C94A9322AC0E1
:1054800088339105A1F1C99711F00C94A93236C067
:105490008CE00E94FD0381E3898301E00C94073BCB
:1054A0008CE00E94FD0382E389830C94723B8CE0C4
:1054B0000E94FD0383E389830C94A9328CE00E944F
:1054C000FD0339820C94A9328CE00E94FD036982AD
:1054D0000C94A9328CE00E94FD0386E389830C942E
:1054E000A9328CE00E94FD0329820C94A9328CE041
:1054F0000E94FD0338E339830C94A9328CE00E94AA
:10550000FD0389E389830C94A9328CE00E94FD039A
:1055100080E389830C94A9328A2D912F0E949348AD
:105520006093420370934303809344039093450335
:1055300088E061E00E9411044091420350914303CE
:105540006091440370914503ADB7BEB718970FB68D
:10555000F894BEBF0FBEADBFEDB7FEB73196119642
:10556000AC92119712961C93E282F3824483558386
:10557000668377830E94BA492DB73EB7285F3F4FB5
:105580000FB6F8943EBF0FBE2DBF8A2D912F0E94FB
:105590004D0489E061E00E9411048FE00E94FD0348
:1055A00080916803909169038433910509F447C0A1
:1055B000853391058CF48133910519F1823391057E
:1055C00024F4C09709F0C5C75BC08233910559F137
:1055D000C39709F0BEC72DC08733910509F43FC0BA
:1055E000883391053CF48533910571F1C69709F034
:1055F000B0C72FC088339105B9F1C99709F0A9C781
:1056000039C08CE00E94FD0381E38A838A2D912FAB
:105610000E94934860934203709343038093440332
:105620009093450396C78CE00E94FD0382E38A8332
:1056300090C78CE00E94FD0383E38A838AC78CE0D5
:105640000E94FD033A8285C78CE00E94FD036A82B6
:1056500080C78CE00E94FD0386E38A837AC78CE0D2
:105660000E94FD032A8275C78CE00E94FD0338E387
:105670003A836FC78CE00E94FD0389E38A8369C780
:105680008CE00E94FD0380E38A8363C78A2D912FFB
:105690000E949348609342037093430380934403B2
:1056A0009093450388E061E00E9411044091420319
:1056B000509143036091440370914503ADB7BEB769
:1056C00018970FB6F894BEBF0FBEADBFEDB7FEB7CB
:1056D00031961196AC92119712961C93E282F38246
:1056E00044835583668377830E94BA492DB73EB7BA
:1056F000285F3F4F0FB6F8943EBF0FBE2DBF8A2DD7
:10570000912F0E944D048AE061E00E9411048FE015
:105710000E94FD0380916803909169038433910591
:10572000D1F1853391058CF48133910511F18233E8
:10573000910524F4C09709F00CC74EC0823391053F
:10574000F1F0C39709F005C720C08733910599F19F
:10575000883391053CF48533910511F1C69709F022
:10576000F8C623C08833910559F1C99709F0F1C6ED
:105770002DC08CE00E94FD0381E38B83EAC68CE0A0
:105780000E94FD0382E38B83E4C68CE00E94FD034C
:1057900083E38B83DEC68CE00E94FD033B82D9C687
:1057A0008CE00E94FD036B82D4C68CE00E94FD0356
:1057B00086E38B83CEC68CE00E94FD032B82C9C694
:1057C0008CE00E94FD0338E33B83C3C68CE00E945B
:1057D000FD0389E38B83BDC68CE00E94FD0380E35B
:1057E0008B83B7C68BE061E00E9411048FE00E94BA
:1057F000FD03AFC68A2D912F0E9493486093420308
:1058000070934303809344039093450388E061E0E1
:105810000E9411044091420350914303609144035C
:1058200070914503ADB7BEB718970FB6F894BEBFD9
:105830000FBEADBFEDB7FEB731961196AC92119782
:1058400012961C93E282F3824483558366837783A6
:105850000E94BA492DB73EB7285F3F4F0FB6F89464
:105860003EBF0FBE2DBF8A2D912F0E944D048CE0AC
:1058700061E00E9411048FE00E94FD0380916803A3
:105880009091690384339105D1F1853391058CF4AE
:105890008133910511F18233910524F4C09709F009
:1058A00058C64EC082339105F1F0C39709F051C636
:1058B00020C08733910599F1883391053CF48533F5
:1058C000910511F1C69709F044C623C088339105AC
:1058D00059F1C99709F03DC62DC08CE00E94FD0327
:1058E00081E38D8336C68CE00E94FD0382E38D83C5
:1058F00030C68CE00E94FD0383E38D832AC68CE0D2
:105900000E94FD033D8225C68CE00E94FD036D824E
:1059100020C68CE00E94FD0386E38D831AC68CE0CE
:105920000E94FD032D8215C68CE00E94FD0338E322
:105930003D830FC68CE00E94FD0389E38D8309C679
:105940008CE00E94FD0380E38D8303C68A2D912F96
:105950000E949348609342037093430380934403EF
:105960009093450388E061E00E9411044091420356
:10597000509143036091440370914503ADB7BEB7A6
:1059800018970FB6F894BEBF0FBEADBFEDB7FEB708
:1059900031961196AC92119712961C93E282F38283
:1059A00044835583668377830E94BA492DB73EB7F7
:1059B000285F3F4F0FB6F8943EBF0FBE2DBF8A2D14
:1059C000912F0E944D048DE061E00E9411048FE050
:1059D0000E94FD03809168039091690384339105CF
:1059E000D1F1853391058CF48133910511F1823326
:1059F000910524F4C09709F0ACC54EC082339105DF
:105A0000F1F0C39709F0A5C520C08733910599F13E
:105A1000883391053CF48533910511F1C69709F05F
:105A200098C523C08833910559F1C99709F091C5EC
:105A30002DC08CE00E94FD0381E38E838AC58CE03B
:105A40000E94FD0382E38E8384C58CE00E94FD03E7
:105A500083E38E837EC58CE00E94FD033E8279C580
:105A60008CE00E94FD036E8274C58CE00E94FD03F1
:105A700086E38E836EC58CE00E94FD032E8269C58D
:105A80008CE00E94FD0338E33E8363C58CE00E94F6
:105A9000FD0389E38E835DC58CE00E94FD0380E3F6
:105AA0008E8357C58A2D912F0E949348609342039D
:105AB00070934303809344039093450388E061E02F
:105AC0000E941104409142035091430360914403AA
:105AD00070914503ADB7BEB718970FB6F894BEBF27
