:100000000C94E5000C9404010C9404010C9404017C
:100010000C9404010C9404010C9404010C9404014C
:100020000C9404010C9404010C9404010C9404013C
:100030000C9404010C9404010C9404010C9404012C
:100040000C9404010C9404010C943B010C940401E5
:100050000C9404010C9404010C9404010C9404010C
:100060000C9404010C9404010C9404010C940401FC
:100070000C9404010C9404010C945D020C94040192
:100080000C9404010C9404010C9404016E616E0044
:10009000696E660000407A10F35A00A0724E18098B
:1000A0000010A5D4E80000E87648170000E40B54DF
:1000B000020000CA9A3B000000E1F50500008096AE
:1000C0009800000040420F000000A08601000000E0
:1000D000102700000000E80300000000640000009A
:1000E00000000A00000000000100000000002C7663
:1000F000D888DC674F0823DFC1DFAE59E1B1B7967E
:10010000E5E3E453C63AE651997696E8E6C28426DA
:10011000EB898C9B62ED407C6FFCEFBC9C9F40F2B6
:10012000BAA56FA5F490055A2AF75C936B6CF96732
:100130006DC11BFCE0E40D47FEF520E6B500D0EDF7
:10014000902E0300943577050080841E080000205F
:100150004E0A000000C80C333333330F986E1283FD
:100160001141EF8D2114893BE65516CFFEE6DB18D1
:10017000D1844B381BF77C1D901DA4BBE424203296
:1001800084725E228100C9F124ECA1E53D27494E2D
:1001900046494E4954594E414ECDCCCC3D0AD72309
:1001A0003C17B7D13877CC2B329595E6241FB14F49
:1001B0000A000020410000C84200401C4620BCBE8E
:1001C0004CCA1B0E5AAEC59D740011241FBECFEF42
:1001D000D0E1DEBFCDBF11E0A0E0B1E0ECE4FBED8B
:1001E00000E00BBF02C007900D92AA3AB107D9F701
:1001F00012E0AAEAB1E001C01D92AB3DB107E1F700
:100200000E94D1020C94A46D0C9400008FEF8ABB65
:1002100017BA18BA14BA98EF91BB82B9109261005C
:100220008FE18093640008951092900087E689B969
:100230008AB188698AB9E5E9F0E0808186608083C7
:1002400008955D9BFECF8CB908955D9BFECF8CB960
:10025000089580E090E005C0019627E0813D920777
:1002600011F05F9BF9CF5F9BFECF8CB108955F9B30
:10027000FECF8CB108951F920F920FB60F920BB65E
:100280000F9211242F933F934F935F936F937F931C
:100290008F939F93AF93BF93CF93DF93EF93FF938E
:1002A0008AB188718AB98CB180930402809104026A
:1002B000843271F4C0E0D0E00E942901FE01EE5CBE
:1002C000FD4F80832196C132D105B1F7109204020F
:1002D0008AB188698AB9FF91EF91DF91CF91BF917F
:1002E000AF919F918F917F916F915F914F913F91CE
:1002F0002F910F900BBE0F900FBE0F901F9018956F
:100300001092980087E680939900EAE9F0E08081F6
:1003100088698083EDE9F0E08081866080830895BC
:10032000982F80919B0085FFFCCF90939C000895AF
:10033000982F80919B0085FFFCCF90939C0008959F
:1003400080919B0087FFFCCF80919C00089587B12E
:1003500087B9379A089597B1907F982B97B986B14E
:10036000826C86B93699FECF94B185B1382F20E0E2
:10037000290F311DC9010895AF92BF92CF92DF922C
:10038000EF92FF920F931F93CF93DF936C015B016A
:100390000E94AB01C0E0D0E0EE24FF2487010CC036
:1003A000C6010E94AB01AA2797FDA095BA2FE80EBF
:1003B000F91E0A1F1B1F2196CA15DB058CF3950138
:1003C000442737FD4095542FC801B7010E941C6A8D
:1003D000CA01B9010E947B652CE53FE84AE950E477
:1003E0000E94096620E030E040E85AE30E94096676
:1003F000DF91CF911F910F91FF90EF90DF90CF9001
:10040000BF90AF90089583B783BF83B7876083BFE2
:1004100012BE87B7816087BF08951FBC85E08EBD7F
:100420008FEF8DBD80EF8CBD87B7846087BF089547
:1004300085B585BD85B5856085BD14BC87B78064ED
:1004400087BF089510928B0085E080938A008FEF1C
:100450008093890010928800EDE7F0E0808184604D
:1004600080830895E4E7F0E0108282E180937000D9
:100470001092710084E480830895AC01DC010D903A
:100480000020E9F71197A81BB90B20E030E060EAE3
:100490007FE00FC0FA01E20FF31FE08180919B0023
:1004A00085FFFCCFE0939C00FB013197F1F72F5FB4
:1004B0003F4F2A173B0774F308951F920F920FB610
:1004C0000F920BB60F9211242F933F934F935F938C
:1004D0006F937F938F939F93AF93BF93EF93FF930C
:1004E00080919C008093CB028091CB028B3421F0D1
:1004F0008BEA91E00E943D0210929C00FF91EF91E7
:10050000BF91AF919F918F917F916F915F914F912B
:100510003F912F910F900BBE0F900FBE0F901F9029
:100520001895AC01DC010D900020E9F71197A81B8C
:10053000B90B20E030E060EB74E00FC0FA01E20F8D
:10054000F31FE08180919B0085FFFCCFE0939C002E
:10055000FB013197F1F72F5F3F4F2A173B0774F3E9
:100560000895DC010D900020E9F71197A81BB90B45
:1005700020E030E040E757E10CC0FC01E20FF31F40
:10058000E0815D9BFECFECB9FA013197F1F72F5F67
:100590003F4F2A173B078CF35D9BFECF80E28CB95F
:1005A00008950E94060178940E9414010E9480011F
:1005B00081E30E9421010E94A7018CE00E94C403F4
:1005C0000E94B00480E29EE420E931E0F901319715
:1005D000F1F70197D9F70E94820314BA8FE085BB27
:1005E0000E94C70480917702909178028397C1F7A7
:1005F0000E943806F5CF662311F01A9A01C01A98A6
:100600001B988C9A8D9A8E9A8F9A9798969895980F
:10061000949887FD979A86FD969A85FD959A84FD14
:10062000949A1C9A00C01C989798969895989498BC
:1006300083FD979A82FD969A81FD959A80FD949A02
:100640001C9A00C01C98949A959A969A979A089525
:10065000882311F01A9A01C01A981B9A8C988D98C9
:100660008E988F981C9A00C0849B02C080E101C0C4
:1006700080E08599806286998064879980681C985B
:1006800000C01C9A00C08499816085998260869917
:100690008460879988601C98089580E00E942803F0
:1006A00087FDFBCF82E090E00197F1F780E00E94A8
:1006B000280308951F93182F0E944D03812F60E097
:1006C0000E94FB021F9108951F93182F0E944D0353
:1006D000812F61E00E94FB021F910895662311F4AF
:1006E000805809C0613011F4805405C0623011F4A3
:1006F0008C5601C08C520E945A0308950E944D03EB
:1007000090E0089581E00E945A03089582E00E94DB
:100710005A0308951F93182F0E944D03982F1A30E3
:1007200099F4843110F480E40BC08054843110F4C7
:1007300084E106C094519C3210F080E001C084E551
:1007400080580E945A0304C0812F61E00E94FB027E
:100750001F910895CF93DF93EC0102C00E948A039A
:1007600089918823D9F7DF91CF910895CF93DF93B3
:10077000EC0102C00E948A03FE0121968491882325
:10078000C9F7DF91CF9108951F93182F129A139AEA
:10079000149A8C9A8D9A8E9A8F9A80E89EE301978C
:1007A000F1F7959A949A1C9A00C01C9880E893E1FE
:1007B0000197F1F71C9A00C01C9880E490E0FC01BE
:1007C0003197F1F71C9A00C01C98FC013197F1F7A2
:1007D00094981C9A00C01C980197F1F788E20E9437
:1007E0005A0388E00E945A030E94820386E00E9416
:1007F0005A03812F0E945A031F91089580E884BBF9
:1008000088EC90E00197F1F783B390E054E0880F13
:10081000991F5A95E1F7803B910589F0813B91053D
:1008200024F48037910589F40DC0803D910521F0B5
:10083000803E910551F490C023E330E08FC022E365
:1008400030E08CC021E330E089C080EA9FE001976E
:10085000F1F780E484BB88EC90E00197F1F783B373
:1008600090E044E0880F991F4A95E1F7803B91059D
:10087000A1F0813B910524F480379105A1F410C0CB
:10088000803D910521F0803E910569F403C026E387
:1008900030E064C022E430E061C025E330E05EC0B7
:1008A00024E330E05BC080EA9FE00197F1F780E24B
:1008B00084BB88EC90E00197F1F783B390E034E0DB
:1008C000880F991F3A95E1F7803B9105A1F0813B94
:1008D000910524F480379105A1F410C0803D910565
:1008E00021F0803E910569F403C029E330E036C071
:1008F00023E430E033C028E330E030C027E330E0C9
:100900002DC080E184BB88EC90E00197F1F783B3C0
:1009100090E024E0880F991F2A95E1F7803B91052C
:10092000A1F0813B910524F480379105A1F410C01A
:10093000803D910521F0803E910569F403C023E2DA
:1009400030E00CC024E430E009C020E330E006C011
:100950002AE230E003C0089521E430E0C90108959F
:1009600080E49CE90197F1F70E94820380E060E057
:100970000E946E0380E091E00E94AA0380E061E0A3
:100980000E946E0385E191E00E94AA030895EF9210
:10099000FF920F931F93CF93DF930E94FE039093D8
:1009A00078028093770200D000D000D0EDB7FEB778
:1009B0003196C0EBD1E0ADB7BEB71296DC93CE93C3
:1009C000119727E231E033832283958384830E9449
:1009D0005C6B8DB79EB706960FB6F8949EBF0FBEA0
:1009E0008DBFCE010E94B10280E80E94106460E0D9
:1009F00070E080E89FE30E94656480E80E94FE63E7
:100A00000E94BD637B018C01609300027093010220
:100A100080930202909303020E947B6520E330E002
:100A200040E05BE40E94AE6420E030E046E852E43F
:100A30000E9413656093D1027093D2028093D30217
:100A40009093D402ADB7BEB718970FB6F894BEBF57
:100A50000FBEADBFEDB7FEB731961296DC93CE93C5
:100A600011978AE291E093838283E482F582068380
:100A700017830E945C6B8DB79EB708960FB6F894EB
:100A80009EBF0FBE8DBFCE010E94B102ADB7BEB7F3
:100A900018970FB6F894BEBF0FBEADBFEDB7FEB747
:100AA00031961296DC93CE9311970EE211E01383E8
:100AB00002838091D1029091D202A091D302B09191
:100AC000D40284839583A683B7830E945C6B8DB721
:100AD0009EB708960FB6F8949EBF0FBE8DBFCE018D
:100AE0000E94B1028DE090E00E94210180E060E070
:100AF0000E946E0383E391E00E94AA0382E160E01A
:100B00000E946E038AE391E00E94AA0380E061E004
:100B10000E946E038DE391E00E94AA0382E161E0EE
:100B20000E946E0384E491E00E94AA0380E062E0E8
:100B30000E946E0385E491E00E94AA0382E162E0D4
:100B40000E946E0384E491E00E94AA0380E063E0C7
:100B50000E946E038BE491E00E94AA0382E163E0AD
:100B60000E946E0384E491E00E94AA0387E060E0A3
:100B70000E946E03ADB7BEB718970FB6F894BEBF0C
:100B80000FBEADBFEDB7FEB731961296DC93CE9394
:100B90001197138302838091D1029091D202A09188
:100BA000D302B091D40284839583A683B7830E9435
:100BB0005C6BFE0101900020E9F73197EC1BFD0B07
:100BC0008DB79EB708960FB6F8949EBF0FBE8DBF27
:100BD000F7FF1CC000D000D000D0EDB7FEB73196B3
:100BE000ADB7BEB71296DC93CE93119782E591E034
:100BF00093838283D583C4830E945C6B8DB79EB739
:100C000006960FB6F8949EBF0FBE8DBF80EB91E0A5
:100C10000E94AA0380917702909178028234910514
:100C200001F50E94820380E060E00E946E0387E588
:100C300091E00E94AA0380E061E00E946E038DE5CE
:100C400091E00E94AA0306C00E94FE0390937802DE
:100C50008093770280917702909178028134910598
:100C600099F7DF91CF911F910F91FF90EF90089529
:100C70002F923F924F925F926F927F928F929F92AC
:100C8000AF92BF92CF92DF92EF92FF920F931F939A
:100C9000DF93CF930F92CDB7DEB70E94820380E03F
:100CA00060E00E946E0384E691E00E94AA0380E067
:100CB00061E00E946E0385E791E00E94AA0380E054
:100CC00062E00E946E038CE791E00E94AA0380E03C
:100CD00063E00E946E0383E891E00E94AA0388E02B
:100CE00061E00E946E0340911502509116026091DE
:100CF0001702709118022DB73EB7285030400FB63A
:100D0000F8943EBF0FBE2DBFEDB7FEB7319609E593
:100D1000A02E02E0B02EADB7BEB71296BC92AE9236
:100D200011971AE8E12E11E0F12EF382E28244835A
:100D30005583668377830E945C6BEDB7FEB7389668
:100D40000FB6F894FEBF0FBEEDBFC5010E94AA0307
:100D50008FE00E945A0388E062E00E946E03409197
:100D6000090250910A0260910B0270910C022DB79A
:100D70003EB7285030400FB6F8943EBF0FBE2DBF8F
:100D8000EDB7FEB73196B2E2CB2EB2E0DB2EADB7B7
:100D9000BEB71296DC92CE921197F382E282448320
:100DA0005583668377830E945C6BEDB7FEB73896F8
:100DB0000FB6F894FEBF0FBEEDBFC6010E94AA0396
:100DC00088E063E00E946E0340912C0250912D0256
:100DD00060912E0270912F022DB73EB728503040FF
:100DE0000FB6F8943EBF0FBE2DBFEDB7FEB73196DC
:100DF0000DE612E0ADB7BEB712961C930E93119795
:100E0000F382E28244835583668377830E945C6B1E
:100E1000EDB7FEB738960FB6F894FEBF0FBEEDBF24
:100E2000C8010E94AA03442443945524539488245F
:100E30001982A4E33A2EF3E66F2EF2E07F2E9E2C69
:100E4000EF2CE7E32E2EFD2CDB2C0C9485630E9407
:100E5000FE03909378028093770200D000D000D0F8
:100E6000EDB7FEB7319620EB31E0ADB7BEB71296C5
:100E70003C932E93119781E991E09383828344827E
:100E800015820E945C6BADB7BEB716960FB6F8948C
:100E9000BEBF0FBEADBF80EB91E00E94B10200D09B
:100EA00000D000D0EDB7FEB7319620EB31E0ADB702
:100EB000BEB712963C932E93119787E291E09383ED
:100EC00082838091770290917802958384830E9437
:100ED0005C6BADB7BEB716960FB6F894BEBF0FBE2B
:100EE000ADBF80EB91E00E94B1028DE090E00E94E6
:100EF000210180917702909178028134910551F41B
:100F000088EB9BE0E0E9F1E03197F1F70197D1F749
:100F10004A9426C08234910551F488EB9BE0E0E9C5
:100F2000F1E03197F1F70197D1F7439419C0833479
:100F3000910551F488EB9BE0E0E9F1E03197F1F79E
:100F40000197D1F75A9412C08434910549F488EB83
:100F50009BE0E0E9F1E03197F1F70197D1F7539485
:100F6000B5E0B41518F475E0472E04C0442011F420
:100F700044244394E7E0E51518F467E0562E04C0D6
:100F8000552011F455245394F3E0F41508F4C1C02E
:100F9000882011F00C94A6630E94820380E060E038
:100FA0000E946E0384E691E00E94AA0380E061E063
:100FB0000E946E0385E791E00E94AA0380E062E050
:100FC0000E946E038CE791E00E94AA0380E063E038
:100FD0000E946E0383E891E00E94AA0388E061E02A
:100FE0000E946E0340911502509116026091170203
:100FF000709118022DB73EB7285030400FB6F894C4
:101000003EBF0FBE2DBFEDB7FEB73196ADB7BEB731
:101010001196AC9211971296DC929282E3824483ED
:101020005583668377830E945C6BEDB7FEB7389675
:101030000FB6F894FEBF0FBEEDBF8A2D9D2D0E9406
:10104000AA0388E062E00E946E0340910902509179
:101050000A0260910B0270910C022DB73EB7285026
:1010600030400FB6F8943EBF0FBE2DBFEDB7FEB7B0
:101070003196ADB7BEB71196CC9211971296FC92ED
:101080009282E38244835583668377830E945C6BFC
:10109000EDB7FEB738960FB6F894FEBF0FBEEDBFA2
:1010A0008C2D9F2D0E94AA0388E063E00E946E03AE
:1010B00040912C0250912D0260912E0270912F02CE
:1010C0002DB73EB7285030400FB6F8943EBF0FBE44
:1010D0002DBFEDB7FEB73196ADB7BEB711960C93E5
:1010E000119712961C939282E38244835583668300
:1010F00077830E945C6BEDB7FEB738960FB6F89415
:10110000FEBF0FBEEDBFC8010E94AA0319820C9456
:10111000A663F981FF2311F00C94AD6384E991E09B
:101120000E94B1020E94820380E060E00E946E0390
:1011300084E691E00E94AA0380E061E00E946E03D1
:101140008BE991E00E94AA0380E062E00E946E03B6
:1011500082EA91E00E94AA0388E061E00E946E03A7
:1011600040911E0250911F02609120027091210255
:101170002DB73EB7285030400FB6F8943EBF0FBE93
:101180002DBFEDB7FEB7319629EB32E0ADB7BEB754
:1011900012963C932E9311979282E3824483558357
:1011A000668377830E945C6B8DB79EB708960FB6F7
:1011B000F8949EBF0FBE8DBF89EB92E00E94AA03F8
:1011C00088E062E00E946E034091AB025091AC0255
:1011D0006091AD027091AE02ADB7BEB718970FB671
:1011E000F894BEBF0FBEADBFEDB7FEB731961296F5
:1011F0007C926E9211979282E38244835583668338
:1012000077830E945C6BEDB7FEB738960FB6F89403
:10121000FEBF0FBEEDBFC3010E94AA0388240C9439
:10122000AD63F4E05F1611F40C947712F51568F0D5
:1012300022E0521609F42DC3251508F441C631E009
:10124000531611F00C94BF1B10C086E0581611F411
:101250000C949915581610F40C94821297E05916B4
:1012600011F00C94BF1B0C94AC1888E061E00E9454
:101270006E038FE00E945A0380917702909178026A
:101280008433910509F408C185339105A4F48133B1
:10129000910551F1823391052CF4C09711F00C9413
:1012A000BF1BAEC28233910509F464C0C39711F02D
:1012B0000C94BF1BA8C08733910509F4C7C18833BC
:1012C00091054CF48533910509F42EC1C69711F0B0
:1012D0000C94BF1B72C18833910509F4FFC1C997F3
:1012E00011F00C94BF1B43C28CE00E945A0381E3AF
:1012F0008093590289E592E00E943E6A609315024C
:1013000070931602809317029093180288E061E0B0
:101310000E946E03409115025091160260911702CF
:1013200070911802ADB7BEB718970FB6F894BEBF4C
:101330000FBEADBFEDB7FEB731961196AC921197C7
:101340001296DC929282E38244835583668377838C
:101350000E945C6BEDB7FEB738960FB6F894FEBFEF
:101360000FBEEDBF8A2D9D2D0E94AA038824839471
:101370000C9485638CE00E945A0382E380935902A7
:1013800089E592E00E943E6A60931502709316020E
:10139000809317029093180288E061E00E946E0328
:1013A0004091150250911602609117027091180237
:1013B0002DB73EB7285030400FB6F8943EBF0FBE51
:1013C0002DBFEDB7FEB73196ADB7BEB71196AC9253
:1013D00011971296DC929282E3824483558366834E
:1013E00077830E945C6BEDB7FEB738960FB6F89422
:1013F000FEBF0FBEEDBF8A2D9D2D0E94AA0388243B
:1014000083940C9485638CE00E945A0383E3809359
:10141000590289E592E00E943E6A6093150270933A
:101420001602809317029093180288E061E00E94F0
:101430006E0340911502509116026091170270914F
:1014400018022DB73EB7285030400FB6F8943EBF73
:101450000FBE2DBFEDB7FEB73196ADB7BEB7119633
:10146000AC9211971296DC929282E3824483558368
:10147000668377830E945C6BEDB7FEB738960FB634
:10148000F894FEBF0FBEEDBF8A2D9D2D0E94AA03CA
:10149000882483940C9485638CE00E945A033092D4
:1014A000590289E592E00E943E6A609315027093AA
:1014B0001602809317029093180288E061E00E9460
:1014C0006E034091150250911602609117027091BF
:1014D00018022DB73EB7285030400FB6F8943EBFE3
:1014E0000FBE2DBFEDB7FEB73196ADB7BEB71196A3
:1014F000AC9211971296DC929282E38244835583D8
:10150000668377830E945C6BEDB7FEB738960FB6A3
:10151000F894FEBF0FBEEDBF8A2D9D2D0E94AA0339
:10152000882483940C9485638CE00E945A0385E39D
:101530008093590289E592E00E943E6A6093150209
:1015400070931602809317029093180288E061E06E
:101550000E946E034091150250911602609117028D
:10156000709118022DB73EB7285030400FB6F8944E
:101570003EBF0FBE2DBFEDB7FEB73196ADB7BEB7BC
:101580001196AC9211971296DC929282E382448378
:101590005583668377830E945C6BEDB7FEB7389600
:1015A0000FB6F894FEBF0FBEEDBF8A2D9D2D0E9491
:1015B000AA03882483940C9485638CE00E945A03C8
:1015C00086E38093590289E592E00E943E6A609327
:1015D000150270931602809317029093180288E008
:1015E00061E00E946E0340911502509116026091D5
:1015F0001702709118022DB73EB7285030400FB631
:10160000F8943EBF0FBE2DBFEDB7FEB73196ADB714
:10161000BEB71196AC9211971296DC929282E38239
:1016200044835583668377830E945C6BEDB7FEB776
:1016300038960FB6F894FEBF0FBEEDBF8A2D9D2DD4
:101640000E94AA03882483940C9485638CE00E94F2
:101650005A032092590289E592E00E943E6A609303
:10166000150270931602809317029093180288E077
:1016700061E00E946E034091150250911602609144
:101680001702709118022DB73EB7285030400FB6A0
:10169000F8943EBF0FBE2DBFEDB7FEB73196ADB784
:1016A000BEB71196AC9211971296DC929282E382A9
:1016B00044835583668377830E945C6BEDB7FEB7E6
:1016C00038960FB6F894FEBF0FBEEDBF8A2D9D2D44
:1016D0000E94AA03882483940C9485638CE00E9462
:1016E0005A03F8E3F093590289E592E00E943E6ABA
:1016F000609315027093160280931702909318025C
:1017000088E061E00E946E0340911502509116023C
:1017100060911702709118022DB73EB728503040E3
:101720000FB6F8943EBF0FBE2DBFEDB7FEB7319692
:10173000ADB7BEB71196AC9211971296DC92928219
:10174000E38244835583668377830E945C6BEDB7A5
:10175000FEB738960FB6F894FEBF0FBEEDBF8A2DC8
:101760009D2D0E94AA03882483940C9485638CE0A9
:101770000E945A0389E38093590289E592E00E940E
:101780003E6A60931502709316028093170290933D
:10179000180288E061E00E946E03409115025091AA
:1017A000160260911702709118022DB73EB72850AB
:1017B00030400FB6F8943EBF0FBE2DBFEDB7FEB759
:1017C0003196ADB7BEB71196AC9211971296DC92D6
:1017D0009282E38244835583668377830E945C6BA5
:1017E000EDB7FEB738960FB6F894FEBF0FBEEDBF4B
:1017F0008A2D9D2D0E94AA03882483940C948563CE
:101800008CE00E945A0380E38093590289E592E0BC
:101810000E943E6A6093150270931602809317022D
:101820009093180288E061E00E946E0340911502D7
:101830005091160260911702709118022DB73EB7B1
:10184000285030400FB6F8943EBF0FBE2DBFEDB705
:10185000FEB73196ADB7BEB71196AC9211971296FE
:10186000DC929282E38244835583668377830E946D
:101870005C6BEDB7FEB738960FB6F894FEBF0FBE9F
:10188000EDBF8A2D9D2D0E94AA03882483940C9479
:10189000856389E061E00E946E038FE00E945A0335
:1018A00080917702909178028433910509F40BC1FD
:1018B00085339105A4F48133910551F1823391056B
:1018C0002CF4C09711F00C94BF1BB1C28233910568
:1018D00009F467C0C39711F00C94BF1BABC08733EA
:1018E000910509F4CAC1883391054CF485339105FB
:1018F00009F431C1C69711F00C94BF1B75C1883330
:10190000910509F402C2C99711F00C94BF1B46C29D
:101910008CE00E945A0381E380935A0289E592E0A9
:101920000E943E6A6093150270931602809317021C
:101930009093180288E061E00E946E0340911502C6
:101940005091160260911702709118022DB73EB7A0
:10195000285030400FB6F8943EBF0FBE2DBFEDB7F4
:10196000FEB73196ADB7BEB71196AC9211971296ED
:10197000DC929282E38244835583668377830E945C
:101980005C6BEDB7FEB738960FB6F894FEBF0FBE8E
:10199000EDBF8A2D9D2D0E94AA03882483940C9468
:1019A00085638CE00E945A0382E380935A0289E5A2
:1019B00092E00E943E6A6093150270931602809333
:1019C00017029093180288E061E00E946E03409134
:1019D00015025091160260911702709118022DB7EE
:1019E0003EB7285030400FB6F8943EBF0FBE2DBF13
:1019F000EDB7FEB73196ADB7BEB71196AC92119761
:101A00001296DC929282E3824483558366837783C5
:101A10000E945C6BEDB7FEB738960FB6F894FEBF28
:101A20000FBEEDBF8A2D9D2D0E94AA0388248394AA
:101A30000C9485638CE00E945A0383E380935A02DE
:101A400089E592E00E943E6A609315027093160247
:101A5000809317029093180288E061E00E946E0361
:101A60004091150250911602609117027091180270
:101A70002DB73EB7285030400FB6F8943EBF0FBE8A
:101A80002DBFEDB7FEB73196ADB7BEB71196AC928C
:101A900011971296DC929282E38244835583668387
:101AA00077830E945C6BEDB7FEB738960FB6F8945B
:101AB000FEBF0FBEEDBF8A2D9D2D0E94AA03882474
:101AC00083940C9485638CE00E945A0330925A02EE
:101AD00089E592E00E943E6A6093150270931602B7
:101AE000809317029093180288E061E00E946E03D1
:101AF00040911502509116026091170270911802E0
:101B00002DB73EB7285030400FB6F8943EBF0FBEF9
:101B10002DBFEDB7FEB73196ADB7BEB71196AC92FB
:101B200011971296DC929282E382448355836683F6
:101B300077830E945C6BEDB7FEB738960FB6F894CA
:101B4000FEBF0FBEEDBF8A2D9D2D0E94AA038824E3
:101B500083940C9485638CE00E945A0385E3809300
:101B60005A0289E592E00E943E6A609315027093E2
:101B70001602809317029093180288E061E00E9499
:101B80006E034091150250911602609117027091F8
:101B900018022DB73EB7285030400FB6F8943EBF1C
:101BA0000FBE2DBFEDB7FEB73196ADB7BEB71196DC
:101BB000AC9211971296DC929282E3824483558311
:101BC000668377830E945C6BEDB7FEB738960FB6DD
:101BD000F894FEBF0FBEEDBF8A2D9D2D0E94AA0373
:101BE000882483940C9485638CE00E945A0386E3D6
:101BF00080935A0289E592E00E943E6A6093150242
:101C000070931602809317029093180288E061E0A7
:101C10000E946E03409115025091160260911702C6
:101C2000709118022DB73EB7285030400FB6F89487
:101C30003EBF0FBE2DBFEDB7FEB73196ADB7BEB7F5
:101C40001196AC9211971296DC929282E3824483B1
:101C50005583668377830E945C6BEDB7FEB7389639
:101C60000FB6F894FEBF0FBEEDBF8A2D9D2D0E94CA
:101C7000AA03882483940C9485638CE00E945A0301
:101C800020925A0289E592E00E943E6A6093150212
:101C900070931602809317029093180288E061E017
:101CA0000E946E0340911502509116026091170236
:101CB000709118022DB73EB7285030400FB6F894F7
:101CC0003EBF0FBE2DBFEDB7FEB73196ADB7BEB765
:101CD0001196AC9211971296DC929282E382448321
:101CE0005583668377830E945C6BEDB7FEB73896A9
:101CF0000FB6F894FEBF0FBEEDBF8A2D9D2D0E943A
:101D0000AA03882483940C9485638CE00E945A0370
:101D1000F8E3F0935A0289E592E00E943E6A6093EC
:101D2000150270931602809317029093180288E0B0
:101D300061E00E946E03409115025091160260917D
:101D40001702709118022DB73EB7285030400FB6D9
:101D5000F8943EBF0FBE2DBFEDB7FEB73196ADB7BD
:101D6000BEB71196AC9211971296DC929282E382E2
:101D700044835583668377830E945C6BEDB7FEB71F
:101D800038960FB6F894FEBF0FBEEDBF8A2D9D2D7D
:101D90000E94AA03882483940C9485638CE00E949B
:101DA0005A0389E380935A0289E592E00E943E6AD1
:101DB0006093150270931602809317029093180295
:101DC00088E061E00E946E03409115025091160276
:101DD00060911702709118022DB73EB7285030401D
:101DE0000FB6F8943EBF0FBE2DBFEDB7FEB73196CC
:101DF000ADB7BEB71196AC9211971296DC92928253
:101E0000E38244835583668377830E945C6BEDB7DE
:101E1000FEB738960FB6F894FEBF0FBEEDBF8A2D01
:101E20009D2D0E94AA03882483940C9485638CE0E2
:101E30000E945A0380E380935A0289E592E00E944F
:101E40003E6A609315027093160280931702909376
:101E5000180288E061E00E946E03409115025091E3
:101E6000160260911702709118022DB73EB72850E4
:101E700030400FB6F8943EBF0FBE2DBFEDB7FEB792
:101E80003196ADB7BEB71196AC9211971296DC920F
:101E90009282E38244835583668377830E945C6BDE
:101EA000EDB7FEB738960FB6F894FEBF0FBEEDBF84
:101EB0008A2D9D2D0E94AA03882483940C94856307
:101EC0008AE061E00E946E038FE00E945A038091D5
:101ED0007702909178028433910509F40BC1853320
:101EE0009105A4F48133910551F1823391052CF4CD
:101EF000C09711F00C94BF1BB1C28233910509F455
:101F000067C0C39711F00C94BF1BABC0873391051A
:101F100009F4CAC1883391054CF48533910509F45D
:101F200031C1C69711F00C94BF1B75C18833910560
:101F300009F402C2C99711F00C94BF1B46C28CE091
:101F40000E945A0381E380935B0289E592E00E943C
:101F50003E6A609315027093160280931702909365
:101F6000180288E061E00E946E03409115025091D2
:101F7000160260911702709118022DB73EB72850D3
:101F800030400FB6F8943EBF0FBE2DBFEDB7FEB781
:101F90003196ADB7BEB71196AC9211971296DC92FE
:101FA0009282E38244835583668377830E945C6BCD
:101FB000EDB7FEB738960FB6F894FEBF0FBEEDBF73
:101FC0008A2D9D2D0E94AA03882483940C948563F6
:101FD0008CE00E945A0382E380935B0289E592E0E1
:101FE0000E943E6A60931502709316028093170256
:101FF0009093180288E061E00E946E034091150200
:102000005091160260911702709118022DB73EB7D9
:10201000285030400FB6F8943EBF0FBE2DBFEDB72D
:10202000FEB73196ADB7BEB71196AC921197129626
:10203000DC929282E38244835583668377830E9495
:102040005C6BEDB7FEB738960FB6F894FEBF0FBEC7
:10205000EDBF8A2D9D2D0E94AA03882483940C94A1
:1020600085638CE00E945A0383E380935B0289E5D9
:1020700092E00E943E6A609315027093160280936C
:1020800017029093180288E061E00E946E0340916D
:1020900015025091160260911702709118022DB727
:1020A0003EB7285030400FB6F8943EBF0FBE2DBF4C
:1020B000EDB7FEB73196ADB7BEB71196AC9211979A
:1020C0001296DC929282E3824483558366837783FF
:1020D0000E945C6BEDB7FEB738960FB6F894FEBF62
:1020E0000FBEEDBF8A2D9D2D0E94AA0388248394E4
:1020F0000C9485638CE00E945A0330925B0289E560
:1021000092E00E943E6A60931502709316028093DB
:1021100017029093180288E061E00E946E034091DC
:1021200015025091160260911702709118022DB796
:102130003EB7285030400FB6F8943EBF0FBE2DBFBB
:10214000EDB7FEB73196ADB7BEB71196AC92119709
:102150001296DC929282E38244835583668377836E
:102160000E945C6BEDB7FEB738960FB6F894FEBFD1
:102170000FBEEDBF8A2D9D2D0E94AA038824839453
:102180000C9485638CE00E945A0385E380935B0284
:1021900089E592E00E943E6A6093150270931602F0
:1021A000809317029093180288E061E00E946E030A
:1021B0004091150250911602609117027091180219
:1021C0002DB73EB7285030400FB6F8943EBF0FBE33
:1021D0002DBFEDB7FEB73196ADB7BEB71196AC9235
:1021E00011971296DC929282E38244835583668330
:1021F00077830E945C6BEDB7FEB738960FB6F89404
:10220000FEBF0FBEEDBF8A2D9D2D0E94AA0388241C
:1022100083940C9485638CE00E945A0386E3809338
:102220005B0289E592E00E943E6A6093150270931A
:102230001602809317029093180288E061E00E94D2
:102240006E03409115025091160260911702709131
:1022500018022DB73EB7285030400FB6F8943EBF55
:102260000FBE2DBFEDB7FEB73196ADB7BEB7119615
:10227000AC9211971296DC929282E382448355834A
:10228000668377830E945C6BEDB7FEB738960FB616
:10229000F894FEBF0FBEEDBF8A2D9D2D0E94AA03AC
:1022A000882483940C9485638CE00E945A032092C6
:1022B0005B0289E592E00E943E6A6093150270938A
:1022C0001602809317029093180288E061E00E9442
:1022D0006E034091150250911602609117027091A1
:1022E00018022DB73EB7285030400FB6F8943EBFC5
:1022F0000FBE2DBFEDB7FEB73196ADB7BEB7119685
:10230000AC9211971296DC929282E38244835583B9
:10231000668377830E945C6BEDB7FEB738960FB685
:10232000F894FEBF0FBEEDBF8A2D9D2D0E94AA031B
:10233000882483940C9485638CE00E945A03F8E30C
:10234000F0935B0289E592E00E943E6A6093150279
:1023500070931602809317029093180288E061E050
:102360000E946E034091150250911602609117026F
:10237000709118022DB73EB7285030400FB6F89430
:102380003EBF0FBE2DBFEDB7FEB73196ADB7BEB79E
:102390001196AC9211971296DC929282E38244835A
:1023A0005583668377830E945C6BEDB7FEB73896E2
:1023B0000FB6F894FEBF0FBEEDBF8A2D9D2D0E9473
:1023C000AA03882483940C9485638CE00E945A03AA
:1023D00089E380935B0289E592E00E943E6A609304
:1023E000150270931602809317029093180288E0EA
:1023F00061E00E946E0340911502509116026091B7
:102400001702709118022DB73EB7285030400FB612
:10241000F8943EBF0FBE2DBFEDB7FEB73196ADB7F6
:10242000BEB71196AC9211971296DC929282E3821B
:1024300044835583668377830E945C6BEDB7FEB758
:1024400038960FB6F894FEBF0FBEEDBF8A2D9D2DB6
:102450000E94AA03882483940C9485638CE00E94D4
:102460005A0380E380935B0289E592E00E943E6A12
:1024700060931502709316028093170290931802CE
:1024800088E061E00E946E034091150250911602AF
:1024900060911702709118022DB73EB72850304056
:1024A0000FB6F8943EBF0FBE2DBFEDB7FEB7319605
:1024B000ADB7BEB71196AC9211971296DC9292828C
:1024C000E38244835583668377830E945C6BEDB718
:1024D000FEB738960FB6F894FEBF0FBEEDBF8A2D3B
:1024E0009D2D0E94AA03882483940C9485638BE01D
:1024F00061E00E946E038FE00E945A038824839457
:102500000C9485638CE061E00E946E038FE00E9472
:102510005A0380917702909178028433910509F4EF
:102520000BC185339105A4F48133910551F18233B8
:1025300091052CF4C09711F00C94BF1BB1C28233EB
:10254000910509F467C0C39711F00C94BF1BABC091
:102550008733910509F4CAC1883391054CF485335A
:10256000910509F431C1C69711F00C94BF1B75C1D8
:102570008833910509F402C2C99711F00C94BF1B6E
:1025800046C28CE00E945A0381E380935D0289E594
:1025900092E00E943E6A6093150270931602809347
:1025A00017029093180288E061E00E946E03409148
:1025B00015025091160260911702709118022DB702
:1025C0003EB7285030400FB6F8943EBF0FBE2DBF27
:1025D000EDB7FEB73196ADB7BEB71196AC92119775
:1025E0001296DC929282E3824483558366837783DA
:1025F0000E945C6BEDB7FEB738960FB6F894FEBF3D
:102600000FBEEDBF8A2D9D2D0E94AA0388248394BE
:102610000C9485638CE00E945A0382E380935D02F0
:1026200089E592E00E943E6A60931502709316025B
:10263000809317029093180288E061E00E946E0375
:102640004091150250911602609117027091180284
:102650002DB73EB7285030400FB6F8943EBF0FBE9E
:102660002DBFEDB7FEB73196ADB7BEB71196AC92A0
:1026700011971296DC929282E3824483558366839B
:1026800077830E945C6BEDB7FEB738960FB6F8946F
:10269000FEBF0FBEEDBF8A2D9D2D0E94AA03882488
:1026A00083940C9485638CE00E945A0383E38093A7
:1026B0005D0289E592E00E943E6A60931502709384
:1026C0001602809317029093180288E061E00E943E
:1026D0006E0340911502509116026091170270919D
:1026E00018022DB73EB7285030400FB6F8943EBFC1
:1026F0000FBE2DBFEDB7FEB73196ADB7BEB7119681
:10270000AC9211971296DC929282E38244835583B5
:10271000668377830E945C6BEDB7FEB738960FB681
:10272000F894FEBF0FBEEDBF8A2D9D2D0E94AA0317
:10273000882483940C9485638CE00E945A03309221
:102740005D0289E592E00E943E6A609315027093F3
:102750001602809317029093180288E061E00E94AD
:102760006E0340911502509116026091170270910C
:1027700018022DB73EB7285030400FB6F8943EBF30
:102780000FBE2DBFEDB7FEB73196ADB7BEB71196F0
:10279000AC9211971296DC929282E3824483558325
:1027A000668377830E945C6BEDB7FEB738960FB6F1
:1027B000F894FEBF0FBEEDBF8A2D9D2D0E94AA0387
:1027C000882483940C9485638CE00E945A0385E3EB
:1027D00080935D0289E592E00E943E6A6093150253
:1027E00070931602809317029093180288E061E0BC
:1027F0000E946E03409115025091160260911702DB
:10280000709118022DB73EB7285030400FB6F8949B
:102810003EBF0FBE2DBFEDB7FEB73196ADB7BEB709
:102820001196AC9211971296DC929282E3824483C5
:102830005583668377830E945C6BEDB7FEB738964D
:102840000FB6F894FEBF0FBEEDBF8A2D9D2D0E94DE
:10285000AA03882483940C9485638CE00E945A0315
:1028600086E380935D0289E592E00E943E6A609370
:10287000150270931602809317029093180288E055
:1028800061E00E946E034091150250911602609122
:102890001702709118022DB73EB7285030400FB67E
:1028A000F8943EBF0FBE2DBFEDB7FEB73196ADB762
:1028B000BEB71196AC9211971296DC929282E38287
:1028C00044835583668377830E945C6BEDB7FEB7C4
:1028D00038960FB6F894FEBF0FBEEDBF8A2D9D2D22
:1028E0000E94AA03882483940C9485638CE00E9440
:1028F0005A0320925D0289E592E00E943E6A60934D
:10290000150270931602809317029093180288E0C4
:1029100061E00E946E034091150250911602609191
:102920001702709118022DB73EB7285030400FB6ED
:10293000F8943EBF0FBE2DBFEDB7FEB73196ADB7D1
:10294000BEB71196AC9211971296DC929282E382F6
:1029500044835583668377830E945C6BEDB7FEB733
:1029600038960FB6F894FEBF0FBEEDBF8A2D9D2D91
:102970000E94AA03882483940C9485638CE00E94AF
:102980005A03F8E3F0935D0289E592E00E943E6A03
:1029900060931502709316028093170290931802A9
:1029A00088E061E00E946E0340911502509116028A
:1029B00060911702709118022DB73EB72850304031
:1029C0000FB6F8943EBF0FBE2DBFEDB7FEB73196E0
:1029D000ADB7BEB71196AC9211971296DC92928267
:1029E000E38244835583668377830E945C6BEDB7F3
:1029F000FEB738960FB6F894FEBF0FBEEDBF8A2D16
:102A00009D2D0E94AA03882483940C9485638CE0F6
:102A10000E945A0389E380935D0289E592E00E9457
:102A20003E6A60931502709316028093170290938A
:102A3000180288E061E00E946E03409115025091F7
:102A4000160260911702709118022DB73EB72850F8
:102A500030400FB6F8943EBF0FBE2DBFEDB7FEB7A6
:102A60003196ADB7BEB71196AC9211971296DC9223
:102A70009282E38244835583668377830E945C6BF2
:102A8000EDB7FEB738960FB6F894FEBF0FBEEDBF98
:102A90008A2D9D2D0E94AA03882483940C9485631B
:102AA0008CE00E945A0380E380935D0289E592E006
:102AB0000E943E6A6093150270931602809317027B
:102AC0009093180288E061E00E946E034091150225
:102AD0005091160260911702709118022DB73EB7FF
:102AE000285030400FB6F8943EBF0FBE2DBFEDB753
:102AF000FEB73196ADB7BEB71196AC92119712964C
:102B0000DC929282E38244835583668377830E94BA
:102B10005C6BEDB7FEB738960FB6F894FEBF0FBEEC
:102B2000EDBF8A2D9D2D0E94AA03882483940C94C6
:102B300085638DE061E00E946E038FE00E945A037E
:102B400080917702909178028433910509F407C14E
:102B50008533910594F48133910531F182339105E8
:102B600024F4C09709F00BC6AEC28233910509F474
:102B700064C0C39709F003C6A9C08733910509F45F
:102B8000C8C18833910544F48533910509F42FC1F8
:102B9000C69709F0F4C574C18833910509F401C2E0
:102BA000C99709F0ECC546C28CE00E945A0381E344
:102BB00080935E0289E592E00E943E6A609315026E
:102BC00070931602809317029093180288E061E0D8
:102BD0000E946E03409115025091160260911702F7
:102BE000709118022DB73EB7285030400FB6F894B8
:102BF0003EBF0FBE2DBFEDB7FEB73196ADB7BEB726
:102C00001196AC9211971296DC929282E3824483E1
:102C10005583668377830E945C6BEDB7FEB7389669
:102C20000FB6F894FEBF0FBEEDBF8A2D9D2D0E94FA
:102C3000AA03882483940C9485638CE00E945A0331
:102C400082E380935E0289E592E00E943E6A60938F
:102C5000150270931602809317029093180288E071
:102C600061E00E946E03409115025091160260913E
:102C70001702709118022DB73EB7285030400FB69A
:102C8000F8943EBF0FBE2DBFEDB7FEB73196ADB77E
:102C9000BEB71196AC9211971296DC929282E382A3
:102CA00044835583668377830E945C6BEDB7FEB7E0
:102CB00038960FB6F894FEBF0FBEEDBF8A2D9D2D3E
:102CC0000E94AA03882483940C9485638CE00E945C
:102CD0005A0383E380935E0289E592E00E943E6A94
:102CE0006093150270931602809317029093180256
:102CF00088E061E00E946E03409115025091160237
:102D000060911702709118022DB73EB728503040DD
:102D10000FB6F8943EBF0FBE2DBFEDB7FEB731968C
:102D2000ADB7BEB71196AC9211971296DC92928213
:102D3000E38244835583668377830E945C6BEDB79F
:102D4000FEB738960FB6F894FEBF0FBEEDBF8A2DC2
:102D50009D2D0E94AA03882483940C9485638CE0A3
:102D60000E945A0330925E0289E592E00E943E6A18
:102D700060931502709316028093170290931802C5
:102D800088E061E00E946E034091150250911602A6
:102D900060911702709118022DB73EB7285030404D
:102DA0000FB6F8943EBF0FBE2DBFEDB7FEB73196FC
:102DB000ADB7BEB71196AC9211971296DC92928283
:102DC000E38244835583668377830E945C6BEDB70F
:102DD000FEB738960FB6F894FEBF0FBEEDBF8A2D32
:102DE0009D2D0E94AA03882483940C9485638CE013
:102DF0000E945A0385E380935E0289E592E00E9477
:102E00003E6A6093150270931602809317029093A6
:102E1000180288E061E00E946E0340911502509113
:102E2000160260911702709118022DB73EB7285014
:102E300030400FB6F8943EBF0FBE2DBFEDB7FEB7C2
:102E40003196ADB7BEB71196AC9211971296DC923F
:102E50009282E38244835583668377830E945C6B0E
:102E6000EDB7FEB738960FB6F894FEBF0FBEEDBFB4
:102E70008A2D9D2D0E94AA03882483940C94856337
:102E80008CE00E945A0386E380935E0289E592E01B
:102E90000E943E6A60931502709316028093170297
:102EA0009093180288E061E00E946E034091150241
:102EB0005091160260911702709118022DB73EB71B
:102EC000285030400FB6F8943EBF0FBE2DBFEDB76F
:102ED000FEB73196ADB7BEB71196AC921197129668
:102EE000DC929282E38244835583668377830E94D7
:102EF0005C6BEDB7FEB738960FB6F894FEBF0FBE09
:102F0000EDBF8A2D9D2D0E94AA03882483940C94E2
:102F100085638CE00E945A0320925E0289E592E06C
:102F20000E943E6A60931502709316028093170206
:102F30009093180288E061E00E946E0340911502B0
:102F40005091160260911702709118022DB73EB78A
:102F5000285030400FB6F8943EBF0FBE2DBFEDB7DE
:102F6000FEB73196ADB7BEB71196AC9211971296D7
:102F7000DC929282E38244835583668377830E9446
:102F80005C6BEDB7FEB738960FB6F894FEBF0FBE78
:102F9000EDBF8A2D9D2D0E94AA03882483940C9452
:102FA00085638CE00E945A03F8E3F0935E0289E5A2
:102FB00092E00E943E6A609315027093160280931D
:102FC00017029093180288E061E00E946E0340911E
:102FD00015025091160260911702709118022DB7D8
:102FE0003EB7285030400FB6F8943EBF0FBE2DBFFD
:102FF000EDB7FEB73196ADB7BEB71196AC9211974B
:103000001296DC929282E3824483558366837783AF
:103010000E945C6BEDB7FEB738960FB6F894FEBF12
:103020000FBEEDBF8A2D9D2D0E94AA038824839494
:103030000C9485638CE00E945A0389E380935E02BE
:1030400089E592E00E943E6A609315027093160231
:10305000809317029093180288E061E00E946E034B
:10306000409115025091160260911702709118025A
:103070002DB73EB7285030400FB6F8943EBF0FBE74
:103080002DBFEDB7FEB73196ADB7BEB71196AC9276
:1030900011971296DC929282E38244835583668371
:1030A00077830E945C6BEDB7FEB738960FB6F89445
:1030B000FEBF0FBEEDBF8A2D9D2D0E94AA0388245E
:1030C00083940C9485638CE00E945A0380E3809380
:1030D0005E0289E592E00E943E6A60931502709359
:1030E0001602809317029093180288E061E00E9414
:1030F0006E03409115025091160260911702709173
:1031000018022DB73EB7285030400FB6F8943EBF96
:103110000FBE2DBFEDB7FEB73196ADB7BEB7119656
:10312000AC9211971296DC929282E382448355838B
:10313000668377830E945C6BEDB7FEB738960FB657
:10314000F894FEBF0FBEEDBF8A2D9D2D0E94AA03ED
:10315000882483940C9485638EE061E00E946E0362
:103160008FE00E945A038091770290917802843315
:10317000910509F407C18533910594F481339105D4
:1031800031F18233910524F4C09709F0F8C2AEC240
:103190008233910509F464C0C39709F0F0C2A9C055
:1031A0008733910509F4C8C18833910544F4853308
:1031B000910509F42FC1C69709F0E1C274C18833A3
:1031C000910509F401C2C99709F0D9C246C28CE041
:1031D0000E945A0381E380935F0289E592E00E9496
:1031E0003E6A6093150270931602809317029093C3
:1031F000180288E061E00E946E0340911502509130
:10320000160260911702709118022DB73EB7285030
:1032100030400FB6F8943EBF0FBE2DBFEDB7FEB7DE
:103220003196ADB7BEB71196AC9211971296DC925B
:103230009282E38244835583668377830E945C6B2A
:10324000EDB7FEB738960FB6F894FEBF0FBEEDBFD0
:103250008A2D9D2D0E94AA03882483940C94856353
:103260008CE00E945A0382E380935F0289E592E03A
:103270000E943E6A609315027093160280931702B3
:103280009093180288E061E00E946E03409115025D
:103290005091160260911702709118022DB73EB737
:1032A000285030400FB6F8943EBF0FBE2DBFEDB78B
:1032B000FEB73196ADB7BEB71196AC921197129684
:1032C000DC929282E38244835583668377830E94F3
:1032D0005C6BEDB7FEB738960FB6F894FEBF0FBE25
:1032E000EDBF8A2D9D2D0E94AA03882483940C94FF
:1032F00085638CE00E945A0383E380935F0289E533
:1033000092E00E943E6A60931502709316028093C9
:1033100017029093180288E061E00E946E034091CA
:1033200015025091160260911702709118022DB784
:103330003EB7285030400FB6F8943EBF0FBE2DBFA9
:10334000EDB7FEB73196ADB7BEB71196AC921197F7
:103350001296DC929282E38244835583668377835C
:103360000E945C6BEDB7FEB738960FB6F894FEBFBF
:103370000FBEEDBF8A2D9D2D0E94AA038824839441
:103380000C9485638CE00E945A0330925F0289E5B9
:1033900092E00E943E6A6093150270931602809339
:1033A00017029093180288E061E00E946E0340913A
:1033B00015025091160260911702709118022DB7F4
:1033C0003EB7285030400FB6F8943EBF0FBE2DBF19
:1033D000EDB7FEB73196ADB7BEB71196AC92119767
:1033E0001296DC929282E3824483558366837783CC
:1033F0000E945C6BEDB7FEB738960FB6F894FEBF2F
:103400000FBEEDBF8A2D9D2D0E94AA0388248394B0
:103410000C9485638CE00E945A0385E380935F02DD
:1034200089E592E00E943E6A60931502709316024D
:10343000809317029093180288E061E00E946E0367
:103440004091150250911602609117027091180276
:103450002DB73EB7285030400FB6F8943EBF0FBE90
:103460002DBFEDB7FEB73196ADB7BEB71196AC9292
:1034700011971296DC929282E3824483558366838D
:1034800077830E945C6BEDB7FEB738960FB6F89461
:10349000FEBF0FBEEDBF8A2D9D2D0E94AA0388247A
:1034A00083940C9485638CE00E945A0386E3809396
:1034B0005F0289E592E00E943E6A60931502709374
:1034C0001602809317029093180288E061E00E9430
:1034D0006E0340911502509116026091170270918F
:1034E00018022DB73EB7285030400FB6F8943EBFB3
:1034F0000FBE2DBFEDB7FEB73196ADB7BEB7119673
:10350000AC9211971296DC929282E38244835583A7
:10351000668377830E945C6BEDB7FEB738960FB673
:10352000F894FEBF0FBEEDBF8A2D9D2D0E94AA0309
:10353000882483940C9485638CE00E945A03209223
:103540005F0289E592E00E943E6A609315027093E3
:103550001602809317029093180288E061E00E949F
:103560006E034091150250911602609117027091FE
:1035700018022DB73EB7285030400FB6F8943EBF22
:103580000FBE2DBFEDB7FEB73196ADB7BEB71196E2
:10359000AC9211971296DC929282E3824483558317
:1035A000668377830E945C6BEDB7FEB738960FB6E3
:1035B000F894FEBF0FBEEDBF8A2D9D2D0E94AA0379
:1035C000882483940C9485638CE00E945A03F8E36A
:1035D000F0935F0289E592E00E943E6A60931502D3
:1035E00070931602809317029093180288E061E0AE
:1035F0000E946E03409115025091160260911702CD
:10360000709118022DB73EB7285030400FB6F8948D
:103610003EBF0FBE2DBFEDB7FEB73196ADB7BEB7FB
:103620001196AC9211971296DC929282E3824483B7
:103630005583668377830E945C6BEDB7FEB738963F
:103640000FB6F894FEBF0FBEEDBF8A2D9D2D0E94D0
:10365000AA03882483940C9485638CE00E945A0307
:1036600089E380935F0289E592E00E943E6A60935D
:10367000150270931602809317029093180288E047
:1036800061E00E946E034091150250911602609114
:103690001702709118022DB73EB7285030400FB670
:1036A000F8943EBF0FBE2DBFEDB7FEB73196ADB754
:1036B000BEB71196AC9211971296DC929282E38279
:1036C00044835583668377830E945C6BEDB7FEB7B6
:1036D00038960FB6F894FEBF0FBEEDBF8A2D9D2D14
:1036E0000E94AA03882483940C9485638CE00E9432
:1036F0005A0380E380935F0289E592E00E943E6A6C
:10370000609315027093160280931702909318022B
:1037100088E061E00E946E0340911502509116020C
:1037200060911702709118022DB73EB728503040B3
:103730000FB6F8943EBF0FBE2DBFEDB7FEB7319662
:10374000ADB7BEB71196AC9211971296DC929282E9
:10375000E38244835583668377830E945C6BEDB775
:10376000FEB738960FB6F894FEBF0FBEEDBF8A2D98
:103770009D2D0E94AA03882483940C948563882439
:103780008394F2E04F1611F00C94012E24E05216AF
:1037900011F40C94EF24251560F05F1609F419C399
:1037A000F51508F419C631E0531611F00C94856331
:1037B00010C086E0581611F40C94FB27581610F42C
:1037C0000C94F82497E0591611F00C9485630C942E
:1037D000FE2A88E062E00E946E038FE00E945A0396
:1037E00080917702909178028433910509F402C1A7
:1037F00085339105A4F48133910551F1823391050C
:103800002CF4C09711F00C9485639CC2823391050F
:1038100009F462C0C39711F00C948563A4C0873388
:10382000910509F4BBC1883391054CF485339105AA
:1038300009F426C1C69711F00C94856368C18833DA
:10384000910509F4F1C1C99711F00C94856333C255
:103850008CE00E945A0381E38093220282E292E08C
:103860000E943E6A6093090270930A0280930B02E1
:1038700090930C0288E062E00E946E03409109027E
:1038800050910A0260910B0270910C02ADB7BEB765
:1038900018970FB6F894BEBF0FBEADBFEDB7FEB719
:1038A00031961196CC9211971296FC929282E382F5
:1038B00044835583668377830E945C6BEDB7FEB7C4
:1038C00038960FB6F894FEBF0FBEEDBF8C2D9F2D1E
:1038D0000E94AA030C9485638CE00E945A0382E341
:1038E0008093220282E292E00E943E6A6093090283
:1038F00070930A0280930B0290930C0288E062E0BE
:103900000E946E034091090250910A0260910B02DD
:1039100070910C022DB73EB7285030400FB6F89486
:103920003EBF0FBE2DBFEDB7FEB73196ADB7BEB7E8
:103930001196CC9211971296FC929282E382448364
:103940005583668377830E945C6BEDB7FEB738962C
:103950000FB6F894FEBF0FBEEDBF8C2D9F2D0E94B9
:10396000AA030C9485638CE00E945A0383E380933E
:10397000220282E292E00E943E6A60930902709302
:103980000A0280930B0290930C0288E062E00E948E
:103990006E034091090250910A0260910B027091EE
:1039A0000C022DB73EB7285030400FB6F8943EBFFA
:1039B0000FBE2DBFEDB7FEB73196ADB7BEB71196AE
:1039C000CC9211971296FC929282E38244835583A3
:1039D000668377830E945C6BEDB7FEB738960FB6AF
:1039E000F894FEBF0FBEEDBF8C2D9F2D0E94AA0341
:1039F0000C9485638CE00E945A033092220282E28A
:103A000092E00E943E6A6093090270930A028093DA
:103A10000B0290930C0288E062E00E946E034091DA
:103A2000090250910A0260910B0270910C022DB7AD
:103A30003EB7285030400FB6F8943EBF0FBE2DBFA2
:103A4000EDB7FEB73196ADB7BEB71196CC921197D0
:103A50001296FC929282E382448355836683778335
:103A60000E945C6BEDB7FEB738960FB6F894FEBFB8
:103A70000FBEEDBF8C2D9F2D0E94AA030C94856371
:103A80008CE00E945A0385E38093220282E292E056
:103A90000E943E6A6093090270930A0280930B02AF
:103AA00090930C0288E062E00E946E03409109024C
:103AB00050910A0260910B0270910C022DB73EB733
:103AC000285030400FB6F8943EBF0FBE2DBFEDB763
:103AD000FEB73196ADB7BEB71196CC92119712963C
:103AE000FC929282E38244835583668377830E94AB
:103AF0005C6BEDB7FEB738960FB6F894FEBF0FBEFD
:103B0000EDBF8C2D9F2D0E94AA030C9485638CE041
:103B10000E945A0386E38093220282E292E00E948E
:103B20003E6A6093090270930A0280930B0290939D
:103B30000C0288E062E00E946E03409109025091FD
:103B40000A0260910B0270910C022DB73EB728500B
:103B500030400FB6F8943EBF0FBE2DBFEDB7FEB795
:103B60003196ADB7BEB71196CC9211971296FC92D2
:103B70009282E38244835583668377830E945C6BE1
:103B8000EDB7FEB738960FB6F894FEBF0FBEEDBF87
:103B90008C2D9F2D0E94AA030C9485638CE00E94BB
:103BA0005A032092220282E292E00E943E6A6093CF
:103BB000090270930A0280930B0290930C0288E032
:103BC00062E00E946E034091090250910A026091E6
:103BD0000B0270910C022DB73EB7285030400FB643
:103BE000F8943EBF0FBE2DBFEDB7FEB73196ADB70F
:103BF000BEB71196CC9211971296FC929282E382F4
:103C000044835583668377830E945C6BEDB7FEB770
:103C100038960FB6F894FEBF0FBEEDBF8C2D9F2DCA
:103C20000E94AA030C9485638CE00E945A03F8E377
:103C3000F093220282E292E00E943E6A60930902BF
:103C400070930A0280930B0290930C0288E062E06A
:103C50000E946E034091090250910A0260910B028A
:103C600070910C022DB73EB7285030400FB6F89433
:103C70003EBF0FBE2DBFEDB7FEB73196ADB7BEB795
:103C80001196CC9211971296FC929282E382448311
:103C90005583668377830E945C6BEDB7FEB73896D9
:103CA0000FB6F894FEBF0FBEEDBF8C2D9F2D0E9466
:103CB000AA030C9485638CE00E945A0389E38093E5
:103CC000220282E292E00E943E6A609309027093AF
:103CD0000A0280930B0290930C0288E062E00E943B
:103CE0006E034091090250910A0260910B0270919B
:103CF0000C022DB73EB7285030400FB6F8943EBFA7
:103D00000FBE2DBFEDB7FEB73196ADB7BEB711965A
:103D1000CC9211971296FC929282E382448355834F
:103D2000668377830E945C6BEDB7FEB738960FB65B
:103D3000F894FEBF0FBEEDBF8C2D9F2D0E94AA03ED
:103D40000C9485638CE00E945A0380E380932202E6
:103D500082E292E00E943E6A6093090270930A0236
:103D600080930B0290930C0288E062E00E946E0345
:103D70004091090250910A0260910B0270910C026D
:103D80002DB73EB7285030400FB6F8943EBF0FBE57
:103D90002DBFEDB7FEB73196ADB7BEB71196CC9239
:103DA00011971296FC929282E38244835583668334
:103DB00077830E945C6BEDB7FEB738960FB6F89428
:103DC000FEBF0FBEEDBF8C2D9F2D0E94AA030C9449
:103DD000856389E062E00E946E038FE00E945A03CF
:103DE00080917702909178028433910509F405C19E
:103DF00085339105A4F48133910551F18233910506
:103E00002CF4C09711F00C9485639FC28233910506
:103E100009F465C0C39711F00C948563A7C087337C
:103E2000910509F4BEC1883391054CF485339105A1
:103E300009F429C1C69711F00C9485636BC18833CE
:103E4000910509F4F4C1C99711F00C94856336C249
:103E50008CE00E945A0381E38093230282E292E085
:103E60000E943E6A6093090270930A0280930B02DB
:103E700090930C0288E062E00E946E034091090278
:103E800050910A0260910B0270910C022DB73EB75F
:103E9000285030400FB6F8943EBF0FBE2DBFEDB78F
:103EA000FEB73196ADB7BEB71196CC921197129668
:103EB000FC929282E38244835583668377830E94D7
:103EC0005C6BEDB7FEB738960FB6F894FEBF0FBE29
:103ED000EDBF8C2D9F2D0E94AA030C9485638CE06E
:103EE0000E945A0382E38093230282E292E00E94BE
:103EF0003E6A6093090270930A0280930B029093CA
:103F00000C0288E062E00E946E0340910902509129
:103F10000A0260910B0270910C022DB73EB7285037
:103F200030400FB6F8943EBF0FBE2DBFEDB7FEB7C1
:103F30003196ADB7BEB71196CC9211971296FC92FE
:103F40009282E38244835583668377830E945C6B0D
:103F5000EDB7FEB738960FB6F894FEBF0FBEEDBFB3
:103F60008C2D9F2D0E94AA030C9485638CE00E94E7
:103F70005A0383E38093230282E292E00E943E6A26
:103F80006093090270930A0280930B0290930C02D3
:103F900088E062E00E946E034091090250910A029B
:103FA00060910B0270910C022DB73EB72850304043
:103FB0000FB6F8943EBF0FBE2DBFEDB7FEB73196DA
:103FC000ADB7BEB71196CC9211971296FC92928221
:103FD000E38244835583668377830E945C6BEDB7ED
:103FE000FEB738960FB6F894FEBF0FBEEDBF8C2D0E
:103FF0009F2D0E94AA030C9485638CE00E945A03B3
:104000003092230282E292E00E943E6A60930902AB
:1040100070930A0280930B0290930C0288E062E096
:104020000E946E034091090250910A0260910B02B6
:1040300070910C022DB73EB7285030400FB6F8945F
:104040003EBF0FBE2DBFEDB7FEB73196ADB7BEB7C1
:104050001196CC9211971296FC929282E38244833D
:104060005583668377830E945C6BEDB7FEB7389605
:104070000FB6F894FEBF0FBEEDBF8C2D9F2D0E9492
:10408000AA030C9485638CE00E945A0385E3809315
:10409000230282E292E00E943E6A609309027093DA
:1040A0000A0280930B0290930C0288E062E00E9467
:1040B0006E034091090250910A0260910B027091C7
:1040C0000C022DB73EB7285030400FB6F8943EBFD3
:1040D0000FBE2DBFEDB7FEB73196ADB7BEB7119687
:1040E000CC9211971296FC929282E382448355837C
:1040F000668377830E945C6BEDB7FEB738960FB688
:10410000F894FEBF0FBEEDBF8C2D9F2D0E94AA0319
:104110000C9485638CE00E945A0386E3809323020B
:1041200082E292E00E943E6A6093090270930A0262
:1041300080930B0290930C0288E062E00E946E0371
:104140004091090250910A0260910B0270910C0299
:104150002DB73EB7285030400FB6F8943EBF0FBE83
:104160002DBFEDB7FEB73196ADB7BEB71196CC9265
:1041700011971296FC929282E38244835583668360
:1041800077830E945C6BEDB7FEB738960FB6F89454
:10419000FEBF0FBEEDBF8C2D9F2D0E94AA030C9475
:1041A00085638CE00E945A032092230282E292E00F
:1041B0000E943E6A6093090270930A0280930B0288
:1041C00090930C0288E062E00E946E034091090225
:1041D00050910A0260910B0270910C022DB73EB70C
:1041E000285030400FB6F8943EBF0FBE2DBFEDB73C
:1041F000FEB73196ADB7BEB71196CC921197129615
:10420000FC929282E38244835583668377830E9483
:104210005C6BEDB7FEB738960FB6F894FEBF0FBED5
:10422000EDBF8C2D9F2D0E94AA030C9485638CE01A
:104230000E945A03F8E3F093230282E292E00E9484
:104240003E6A6093090270930A0280930B02909376
:104250000C0288E062E00E946E03409109025091D6
:104260000A0260910B0270910C022DB73EB72850E4
:1042700030400FB6F8943EBF0FBE2DBFEDB7FEB76E
:104280003196ADB7BEB71196CC9211971296FC92AB
:104290009282E38244835583668377830E945C6BBA
:1042A000EDB7FEB738960FB6F894FEBF0FBEEDBF60
:1042B0008C2D9F2D0E94AA030C9485638CE00E9494
:1042C0005A0389E38093230282E292E00E943E6ACD
:1042D0006093090270930A0280930B0290930C0280
:1042E00088E062E00E946E034091090250910A0248
:1042F00060910B0270910C022DB73EB728503040F0
:104300000FB6F8943EBF0FBE2DBFEDB7FEB7319686
:10431000ADB7BEB71196CC9211971296FC929282CD
:10432000E38244835583668377830E945C6BEDB799
:10433000FEB738960FB6F894FEBF0FBEEDBF8C2DBA
:104340009F2D0E94AA030C9485638CE00E945A035F
:1043500080E38093230282E292E00E943E6A6093AF
:10436000090270930A0280930B0290930C0288E07A
:1043700062E00E946E034091090250910A0260912E
:104380000B0270910C022DB73EB7285030400FB68B
:10439000F8943EBF0FBE2DBFEDB7FEB73196ADB757
:1043A000BEB71196CC9211971296FC929282E3823C
:1043B00044835583668377830E945C6BEDB7FEB7B9
:1043C00038960FB6F894FEBF0FBEEDBF8C2D9F2D13
:1043D0000E94AA030C9485638AE062E00E946E0347
:1043E0008FE00E945A038091770290917802843383
:1043F000910509F405C185339105A4F48133910534
:1044000051F1823391052CF4C09711F00C9485631F
:104410009FC28233910509F465C0C39711F00C94D3
:104420008563A7C08733910509F4BEC18833910520
:104430004CF48533910509F429C1C69711F00C9409
:1044400085636BC18833910509F4F4C1C99711F0F4
:104450000C94856336C28CE00E945A0381E38093FA
:10446000240282E292E00E943E6A60930902709305
:104470000A0280930B0290930C0288E062E00E9493
:104480006E034091090250910A0260910B027091F3
:104490000C022DB73EB7285030400FB6F8943EBFFF
:1044A0000FBE2DBFEDB7FEB73196ADB7BEB71196B3
:1044B000CC9211971296FC929282E38244835583A8
:1044C000668377830E945C6BEDB7FEB738960FB6B4
:1044D000F894FEBF0FBEEDBF8C2D9F2D0E94AA0346
:1044E0000C9485638CE00E945A0382E3809324023B
:1044F00082E292E00E943E6A6093090270930A028F
:1045000080930B0290930C0288E062E00E946E039D
:104510004091090250910A0260910B0270910C02C5
:104520002DB73EB7285030400FB6F8943EBF0FBEAF
:104530002DBFEDB7FEB73196ADB7BEB71196CC9291
:1045400011971296FC929282E3824483558366838C
:1045500077830E945C6BEDB7FEB738960FB6F89480
:10456000FEBF0FBEEDBF8C2D9F2D0E94AA030C94A1
:1045700085638CE00E945A0383E38093240282E2E5
:1045800092E00E943E6A6093090270930A0280934F
:104590000B0290930C0288E062E00E946E0340914F
:1045A000090250910A0260910B0270910C022DB722
:1045B0003EB7285030400FB6F8943EBF0FBE2DBF17
:1045C000EDB7FEB73196ADB7BEB71196CC92119745
:1045D0001296FC929282E3824483558366837783AA
:1045E0000E945C6BEDB7FEB738960FB6F894FEBF2D
:1045F0000FBEEDBF8C2D9F2D0E94AA030C948563E6
:104600008CE00E945A033092240282E292E00E94DF
:104610003E6A6093090270930A0280930B029093A2
:104620000C0288E062E00E946E0340910902509102
:104630000A0260910B0270910C022DB73EB7285010
:1046400030400FB6F8943EBF0FBE2DBFEDB7FEB79A
:104650003196ADB7BEB71196CC9211971296FC92D7
:104660009282E38244835583668377830E945C6BE6
:10467000EDB7FEB738960FB6F894FEBF0FBEEDBF8C
:104680008C2D9F2D0E94AA030C9485638CE00E94C0
:104690005A0385E38093240282E292E00E943E6AFC
:1046A0006093090270930A0280930B0290930C02AC
:1046B00088E062E00E946E034091090250910A0274
:1046C00060910B0270910C022DB73EB7285030401C
:1046D0000FB6F8943EBF0FBE2DBFEDB7FEB73196B3
:1046E000ADB7BEB71196CC9211971296FC929282FA
:1046F000E38244835583668377830E945C6BEDB7C6
:10470000FEB738960FB6F894FEBF0FBEEDBF8C2DE6
:104710009F2D0E94AA030C9485638CE00E945A038B
:1047200086E38093240282E292E00E943E6A6093D4
:10473000090270930A0280930B0290930C0288E0A6
:1047400062E00E946E034091090250910A0260915A
:104750000B0270910C022DB73EB7285030400FB6B7
:10476000F8943EBF0FBE2DBFEDB7FEB73196ADB783
:10477000BEB71196CC9211971296FC929282E38268
:1047800044835583668377830E945C6BEDB7FEB7E5
:1047900038960FB6F894FEBF0FBEEDBF8C2D9F2D3F
:1047A0000E94AA030C9485638CE00E945A03209215
:1047B000240282E292E00E943E6A609309027093B2
:1047C0000A0280930B0290930C0288E062E00E9440
:1047D0006E034091090250910A0260910B027091A0
:1047E0000C022DB73EB7285030400FB6F8943EBFAC
:1047F0000FBE2DBFEDB7FEB73196ADB7BEB7119660
:10480000CC9211971296FC929282E3824483558354
:10481000668377830E945C6BEDB7FEB738960FB660
:10482000F894FEBF0FBEEDBF8C2D9F2D0E94AA03F2
:104830000C9485638CE00E945A03F8E3F093240201
:1048400082E292E00E943E6A6093090270930A023B
:1048500080930B0290930C0288E062E00E946E034A
:104860004091090250910A0260910B0270910C0272
:104870002DB73EB7285030400FB6F8943EBF0FBE5C
:104880002DBFEDB7FEB73196ADB7BEB71196CC923E
:1048900011971296FC929282E38244835583668339
:1048A00077830E945C6BEDB7FEB738960FB6F8942D
:1048B000FEBF0FBEEDBF8C2D9F2D0E94AA030C944E
:1048C00085638CE00E945A0389E38093240282E28C
:1048D00092E00E943E6A6093090270930A028093FC
:1048E0000B0290930C0288E062E00E946E034091FC
:1048F000090250910A0260910B0270910C022DB7CF
:104900003EB7285030400FB6F8943EBF0FBE2DBFC3
:10491000EDB7FEB73196ADB7BEB71196CC921197F1
:104920001296FC929282E382448355836683778356
:104930000E945C6BEDB7FEB738960FB6F894FEBFD9
:104940000FBEEDBF8C2D9F2D0E94AA030C94856392
:104950008CE00E945A0380E38093240282E292E07A
:104960000E943E6A6093090270930A0280930B02D0
:1049700090930C0288E062E00E946E03409109026D
:1049800050910A0260910B0270910C022DB73EB754
:10499000285030400FB6F8943EBF0FBE2DBFEDB784
:1049A000FEB73196ADB7BEB71196CC92119712965D
:1049B000FC929282E38244835583668377830E94CC
:1049C0005C6BEDB7FEB738960FB6F894FEBF0FBE1E
:1049D000EDBF8C2D9F2D0E94AA030C9485638BE064
:1049E00062E00E946E038FE00E945A030C9485637C
:1049F0008CE062E00E946E038FE00E945A03809177
:104A00007702909178028433910509F405C18533CA
:104A10009105A4F48133910551F1823391052CF471
:104A2000C09711F00C9485639FC28233910509F4FD
:104A300065C0C39711F00C948563A7C087339105B7
:104A400009F4BEC1883391054CF48533910509F40E
:104A500029C1C69711F00C9485636BC18833910509
:104A600009F4F4C1C99711F00C94856336C28CE047
:104A70000E945A0381E38093260282E292E00E9420
:104A80003E6A6093090270930A0280930B0290932E
:104A90000C0288E062E00E946E034091090250918E
:104AA0000A0260910B0270910C022DB73EB728509C
:104AB00030400FB6F8943EBF0FBE2DBFEDB7FEB726
:104AC0003196ADB7BEB71196CC9211971296FC9263
:104AD0009282E38244835583668377830E945C6B72
:104AE000EDB7FEB738960FB6F894FEBF0FBEEDBF18
:104AF0008C2D9F2D0E94AA030C9485638CE00E944C
:104B00005A0382E38093260282E292E00E943E6A88
:104B10006093090270930A0280930B0290930C0237
:104B200088E062E00E946E034091090250910A02FF
:104B300060910B0270910C022DB73EB728503040A7
:104B40000FB6F8943EBF0FBE2DBFEDB7FEB731963E
:104B5000ADB7BEB71196CC9211971296FC92928285
:104B6000E38244835583668377830E945C6BEDB751
:104B7000FEB738960FB6F894FEBF0FBEEDBF8C2D72
:104B80009F2D0E94AA030C9485638CE00E945A0317
:104B900083E38093260282E292E00E943E6A609361
:104BA000090270930A0280930B0290930C0288E032
:104BB00062E00E946E034091090250910A026091E6
:104BC0000B0270910C022DB73EB7285030400FB643
:104BD000F8943EBF0FBE2DBFEDB7FEB73196ADB70F
:104BE000BEB71196CC9211971296FC929282E382F4
:104BF00044835583668377830E945C6BEDB7FEB771
:104C000038960FB6F894FEBF0FBEEDBF8C2D9F2DCA
:104C10000E94AA030C9485638CE00E945A03309290
:104C2000260282E292E00E943E6A6093090270933B
:104C30000A0280930B0290930C0288E062E00E94CB
:104C40006E034091090250910A0260910B0270912B
:104C50000C022DB73EB7285030400FB6F8943EBF37
:104C60000FBE2DBFEDB7FEB73196ADB7BEB71196EB
:104C7000CC9211971296FC929282E38244835583E0
:104C8000668377830E945C6BEDB7FEB738960FB6EC
:104C9000F894FEBF0FBEEDBF8C2D9F2D0E94AA037E
:104CA0000C9485638CE00E945A0385E3809326026E
:104CB00082E292E00E943E6A6093090270930A02C7
:104CC00080930B0290930C0288E062E00E946E03D6
:104CD0004091090250910A0260910B0270910C02FE
:104CE0002DB73EB7285030400FB6F8943EBF0FBEE8
:104CF0002DBFEDB7FEB73196ADB7BEB71196CC92CA
:104D000011971296FC929282E382448355836683C4
:104D100077830E945C6BEDB7FEB738960FB6F894B8
:104D2000FEBF0FBEEDBF8C2D9F2D0E94AA030C94D9
:104D300085638CE00E945A0386E38093260282E218
:104D400092E00E943E6A6093090270930A02809387
:104D50000B0290930C0288E062E00E946E03409187
:104D6000090250910A0260910B0270910C022DB75A
:104D70003EB7285030400FB6F8943EBF0FBE2DBF4F
:104D8000EDB7FEB73196ADB7BEB71196CC9211977D
:104D90001296FC929282E3824483558366837783E2
:104DA0000E945C6BEDB7FEB738960FB6F894FEBF65
:104DB0000FBEEDBF8C2D9F2D0E94AA030C9485631E
:104DC0008CE00E945A032092260282E292E00E9426
:104DD0003E6A6093090270930A0280930B029093DB
:104DE0000C0288E062E00E946E034091090250913B
:104DF0000A0260910B0270910C022DB73EB7285049
:104E000030400FB6F8943EBF0FBE2DBFEDB7FEB7D2
:104E10003196ADB7BEB71196CC9211971296FC920F
:104E20009282E38244835583668377830E945C6B1E
:104E3000EDB7FEB738960FB6F894FEBF0FBEEDBFC4
:104E40008C2D9F2D0E94AA030C9485638CE00E94F8
:104E50005A03F8E3F093260282E292E00E943E6A4F
:104E60006093090270930A0280930B0290930C02E4
:104E700088E062E00E946E034091090250910A02AC
:104E800060910B0270910C022DB73EB72850304054
:104E90000FB6F8943EBF0FBE2DBFEDB7FEB73196EB
:104EA000ADB7BEB71196CC9211971296FC92928232
:104EB000E38244835583668377830E945C6BEDB7FE
:104EC000FEB738960FB6F894FEBF0FBEEDBF8C2D1F
:104ED0009F2D0E94AA030C9485638CE00E945A03C4
:104EE00089E38093260282E292E00E943E6A609308
:104EF000090270930A0280930B0290930C0288E0DF
:104F000062E00E946E034091090250910A02609192
:104F10000B0270910C022DB73EB7285030400FB6EF
:104F2000F8943EBF0FBE2DBFEDB7FEB73196ADB7BB
:104F3000BEB71196CC9211971296FC929282E382A0
:104F400044835583668377830E945C6BEDB7FEB71D
:104F500038960FB6F894FEBF0FBEEDBF8C2D9F2D77
:104F60000E94AA030C9485638CE00E945A0380E39C
:104F70008093260282E292E00E943E6A60930902D8
:104F800070930A0280930B0290930C0288E062E017
:104F90000E946E034091090250910A0260910B0237
:104FA00070910C022DB73EB7285030400FB6F894E0
:104FB0003EBF0FBE2DBFEDB7FEB73196ADB7BEB742
:104FC0001196CC9211971296FC929282E3824483BE
:104FD0005583668377830E945C6BEDB7FEB7389686
:104FE0000FB6F894FEBF0FBEEDBF8C2D9F2D0E9413
:104FF000AA030C9485638DE062E00E946E038FE04B
:105000000E945A038091770290917802843391052F
:1050100009F405C185339105A4F48133910551F15B
:10502000823391052CF4C09711F00C9485639FC2D4
:105030008233910509F465C0C39711F00C94856320
:10504000A7C08733910509F4BEC1883391054CF49C
:105050008533910509F429C1C69711F00C94856335
:105060006BC18833910509F4F4C1C99711F00C9410
:10507000856336C28CE00E945A0381E38093270245
:1050800082E292E00E943E6A6093090270930A02F3
:1050900080930B0290930C0288E062E00E946E0302
:1050A0004091090250910A0260910B0270910C022A
:1050B0002DB73EB7285030400FB6F8943EBF0FBE14
:1050C0002DBFEDB7FEB73196ADB7BEB71196CC92F6
:1050D00011971296FC929282E382448355836683F1
:1050E00077830E945C6BEDB7FEB738960FB6F894E5
:1050F000FEBF0FBEEDBF8C2D9F2D0E94AA030C9406
:1051000085638CE00E945A0382E38093270282E247
:1051100092E00E943E6A6093090270930A028093B3
:105120000B0290930C0288E062E00E946E034091B3
:10513000090250910A0260910B0270910C022DB786
:105140003EB7285030400FB6F8943EBF0FBE2DBF7B
:10515000EDB7FEB73196ADB7BEB71196CC921197A9
:105160001296FC929282E38244835583668377830E
:105170000E945C6BEDB7FEB738960FB6F894FEBF91
:105180000FBEEDBF8C2D9F2D0E94AA030C9485634A
:105190008CE00E945A0383E38093270282E292E02C
:1051A0000E943E6A6093090270930A0280930B0288
:1051B00090930C0288E062E00E946E034091090225
:1051C00050910A0260910B0270910C022DB73EB70C
:1051D000285030400FB6F8943EBF0FBE2DBFEDB73C
:1051E000FEB73196ADB7BEB71196CC921197129615
:1051F000FC929282E38244835583668377830E9484
:105200005C6BEDB7FEB738960FB6F894FEBF0FBED5
:10521000EDBF8C2D9F2D0E94AA030C9485638CE01A
:105220000E945A033092270282E292E00E943E6A74
:105230006093090270930A0280930B0290930C0210
:1052400088E062E00E946E034091090250910A02D8
:1052500060910B0270910C022DB73EB72850304080
:105260000FB6F8943EBF0FBE2DBFEDB7FEB7319617
:10527000ADB7BEB71196CC9211971296FC9292825E
:10528000E38244835583668377830E945C6BEDB72A
:10529000FEB738960FB6F894FEBF0FBEEDBF8C2D4B
:1052A0009F2D0E94AA030C9485638CE00E945A03F0
:1052B00085E38093270282E292E00E943E6A609337
:1052C000090270930A0280930B0290930C0288E00B
:1052D00062E00E946E034091090250910A026091BF
:1052E0000B0270910C022DB73EB7285030400FB61C
:1052F000F8943EBF0FBE2DBFEDB7FEB73196ADB7E8
:10530000BEB71196CC9211971296FC929282E382CC
:1053100044835583668377830E945C6BEDB7FEB749
:1053200038960FB6F894FEBF0FBEEDBF8C2D9F2DA3
:105330000E94AA030C9485638CE00E945A0386E3C2
:105340008093270282E292E00E943E6A6093090203
:1053500070930A0280930B0290930C0288E062E043
:105360000E946E034091090250910A0260910B0263
:1053700070910C022DB73EB7285030400FB6F8940C
:105380003EBF0FBE2DBFEDB7FEB73196ADB7BEB76E
:105390001196CC9211971296FC929282E3824483EA
:1053A0005583668377830E945C6BEDB7FEB73896B2
:1053B0000FB6F894FEBF0FBEEDBF8C2D9F2D0E943F
:1053C000AA030C9485638CE00E945A032092270262
:1053D00082E292E00E943E6A6093090270930A02A0
:1053E00080930B0290930C0288E062E00E946E03AF
:1053F0004091090250910A0260910B0270910C02D7
:105400002DB73EB7285030400FB6F8943EBF0FBEC0
:105410002DBFEDB7FEB73196ADB7BEB71196CC92A2
:1054200011971296FC929282E3824483558366839D
:1054300077830E945C6BEDB7FEB738960FB6F89491
:10544000FEBF0FBEEDBF8C2D9F2D0E94AA030C94B2
:1054500085638CE00E945A03F8E3F093270282E20E
:1054600092E00E943E6A6093090270930A02809360
:105470000B0290930C0288E062E00E946E03409160
:10548000090250910A0260910B0270910C022DB733
:105490003EB7285030400FB6F8943EBF0FBE2DBF28
:1054A000EDB7FEB73196ADB7BEB71196CC92119756
:1054B0001296FC929282E3824483558366837783BB
:1054C0000E945C6BEDB7FEB738960FB6F894FEBF3E
:1054D0000FBEEDBF8C2D9F2D0E94AA030C948563F7
:1054E0008CE00E945A0389E38093270282E292E0D3
:1054F0000E943E6A6093090270930A0280930B0235
:1055000090930C0288E062E00E946E0340910902D1
:1055100050910A0260910B0270910C022DB73EB7B8
:10552000285030400FB6F8943EBF0FBE2DBFEDB7E8
:10553000FEB73196ADB7BEB71196CC9211971296C1
:10554000FC929282E38244835583668377830E9430
:105550005C6BEDB7FEB738960FB6F894FEBF0FBE82
:10556000EDBF8C2D9F2D0E94AA030C9485638CE0C7
:105570000E945A0380E38093270282E292E00E9415
:105580003E6A6093090270930A0280930B02909323
:105590000C0288E062E00E946E0340910902509183
:1055A0000A0260910B0270910C022DB73EB7285091
:1055B00030400FB6F8943EBF0FBE2DBFEDB7FEB71B
:1055C0003196ADB7BEB71196CC9211971296FC9258
:1055D0009282E38244835583668377830E945C6B67
:1055E000EDB7FEB738960FB6F894FEBF0FBEEDBF0D
:1055F0008C2D9F2D0E94AA030C9485638EE062E09F
:105600000E946E038FE00E945A038091770290916E
:1056100078028433910509F405C185339105A4F41A
:105620008133910551F1823391052CF4C09711F02B
:105630000C9485639FC28233910509F465C0C397BA
:1056400011F00C948563A7C08733910509F4BEC19E
:10565000883391054CF48533910509F429C1C69727
:1056600011F00C9485636BC18833910509F4F4C182
:10567000C99711F00C94856336C28CE00E945A03DE
:1056800081E38093280282E292E00E943E6A609366
:10569000090270930A0280930B0290930C0288E037
:1056A00062E00E946E034091090250910A026091EB
:1056B0000B0270910C022DB73EB7285030400FB648
:1056C000F8943EBF0FBE2DBFEDB7FEB73196ADB714
:1056D000BEB71196CC9211971296FC929282E382F9
:1056E00044835583668377830E945C6BEDB7FEB776
:1056F00038960FB6F894FEBF0FBEEDBF8C2D9F2DD0
:105700000E94AA030C9485638CE00E945A0382E3F2
:105710008093280282E292E00E943E6A609309022E
:1057200070930A0280930B0290930C0288E062E06F
:105730000E946E034091090250910A0260910B028F
:1057400070910C022DB73EB7285030400FB6F89438
:105750003EBF0FBE2DBFEDB7FEB73196ADB7BEB79A
:105760001196CC9211971296FC929282E382448316
:105770005583668377830E945C6BEDB7FEB73896DE
:105780000FB6F894FEBF0FBEEDBF8C2D9F2D0E946B
:10579000AA030C9485638CE00E945A0383E38093F0
:1057A000280282E292E00E943E6A609309027093AE
:1057B0000A0280930B0290930C0288E062E00E9440
:1057C0006E034091090250910A0260910B027091A0
:1057D0000C022DB73EB7285030400FB6F8943EBFAC
:1057E0000FBE2DBFEDB7FEB73196ADB7BEB7119660
:1057F000CC9211971296FC929282E3824483558355
:10580000668377830E945C6BEDB7FEB738960FB660
:10581000F894FEBF0FBEEDBF8C2D9F2D0E94AA03F2
:105820000C9485638CE00E945A033092280282E235
:1058300092E00E943E6A6093090270930A0280938C
:105840000B0290930C0288E062E00E946E0340918C
:10585000090250910A0260910B0270910C022DB75F
:105860003EB7285030400FB6F8943EBF0FBE2DBF54
:10587000EDB7FEB73196ADB7BEB71196CC92119782
:105880001296FC929282E3824483558366837783E7
:105890000E945C6BEDB7FEB738960FB6F894FEBF6A
:1058A0000FBEEDBF8C2D9F2D0E94AA030C94856323
:1058B0008CE00E945A0385E38093280282E292E002
:1058C0000E943E6A6093090270930A0280930B0261
:1058D00090930C0288E062E00E946E0340910902FE
:1058E00050910A0260910B0270910C022DB73EB7E5
:1058F000285030400FB6F8943EBF0FBE2DBFEDB715
:10590000FEB73196ADB7BEB71196CC9211971296ED
:10591000FC929282E38244835583668377830E945C
:105920005C6BEDB7FEB738960FB6F894FEBF0FBEAE
:10593000EDBF8C2D9F2D0E94AA030C9485638CE0F3
:105940000E945A0386E38093280282E292E00E943A
:105950003E6A6093090270930A0280930B0290934F
:105960000C0288E062E00E946E03409109025091AF
:105970000A0260910B0270910C022DB73EB72850BD
:1059800030400FB6F8943EBF0FBE2DBFEDB7FEB747
:105990003196ADB7BEB71196CC9211971296FC9284
:1059A0009282E38244835583668377830E945C6B93
:1059B000EDB7FEB738960FB6F894FEBF0FBEEDBF39
:1059C0008C2D9F2D0E94AA030C9485638CE00E946D
:1059D0005A032092280282E292E00E943E6A60937B
:1059E000090270930A0280930B0290930C0288E0E4
:1059F00062E00E946E034091090250910A02609198
:105A00000B0270910C022DB73EB7285030400FB6F4
:105A1000F8943EBF0FBE2DBFEDB7FEB73196ADB7C0
:105A2000BEB71196CC9211971296FC929282E382A5
:105A300044835583668377830E945C6BEDB7FEB722
:105A400038960FB6F894FEBF0FBEEDBF8C2D9F2D7C
:105A50000E94AA030C9485638CE00E945A03F8E329
:105A6000F093280282E292E00E943E6A609309026B
:105A700070930A0280930B0290930C0288E062E01C
:105A80000E946E034091090250910A0260910B023C
:105A900070910C022DB73EB7285030400FB6F894E5
:105AA0003EBF0FBE2DBFEDB7FEB73196ADB7BEB747
:105AB0001196CC9211971296FC929282E3824483C3
:105AC0005583668377830E945C6BEDB7FEB738968B
:105AD0000FB6F894FEBF0FBEEDBF8C2D9F2D0E9418
